Archive member included because of file (symbol)

c:/coocox/gcc-arm-none-eabi-4_7-2013q3-20130916-win32/bin/../lib/gcc/arm-none-eabi/4.7.4/../../../../arm-none-eabi/lib/armv7e-m/fpu\libm.a(lib_a-s_round.o)
                              ..\obj\chemical.o (round)
c:/coocox/gcc-arm-none-eabi-4_7-2013q3-20130916-win32/bin/../lib/gcc/arm-none-eabi/4.7.4/../../../../arm-none-eabi/lib/armv7e-m/fpu\libm.a(lib_a-w_log10.o)
                              ..\obj\chemical.o (log10)
c:/coocox/gcc-arm-none-eabi-4_7-2013q3-20130916-win32/bin/../lib/gcc/arm-none-eabi/4.7.4/../../../../arm-none-eabi/lib/armv7e-m/fpu\libm.a(lib_a-w_pow.o)
                              ..\obj\utilities.o (pow)
c:/coocox/gcc-arm-none-eabi-4_7-2013q3-20130916-win32/bin/../lib/gcc/arm-none-eabi/4.7.4/../../../../arm-none-eabi/lib/armv7e-m/fpu\libm.a(lib_a-wf_log.o)
                              ..\obj\thermistor.o (logf)
c:/coocox/gcc-arm-none-eabi-4_7-2013q3-20130916-win32/bin/../lib/gcc/arm-none-eabi/4.7.4/../../../../arm-none-eabi/lib/armv7e-m/fpu\libm.a(lib_a-wf_pow.o)
                              ..\obj\thermistor.o (powf)
c:/coocox/gcc-arm-none-eabi-4_7-2013q3-20130916-win32/bin/../lib/gcc/arm-none-eabi/4.7.4/../../../../arm-none-eabi/lib/armv7e-m/fpu\libm.a(lib_a-e_log10.o)
                              c:/coocox/gcc-arm-none-eabi-4_7-2013q3-20130916-win32/bin/../lib/gcc/arm-none-eabi/4.7.4/../../../../arm-none-eabi/lib/armv7e-m/fpu\libm.a(lib_a-w_log10.o) (__ieee754_log10)
c:/coocox/gcc-arm-none-eabi-4_7-2013q3-20130916-win32/bin/../lib/gcc/arm-none-eabi/4.7.4/../../../../arm-none-eabi/lib/armv7e-m/fpu\libm.a(lib_a-e_pow.o)
                              c:/coocox/gcc-arm-none-eabi-4_7-2013q3-20130916-win32/bin/../lib/gcc/arm-none-eabi/4.7.4/../../../../arm-none-eabi/lib/armv7e-m/fpu\libm.a(lib_a-w_pow.o) (__ieee754_pow)
c:/coocox/gcc-arm-none-eabi-4_7-2013q3-20130916-win32/bin/../lib/gcc/arm-none-eabi/4.7.4/../../../../arm-none-eabi/lib/armv7e-m/fpu\libm.a(lib_a-e_sqrt.o)
                              c:/coocox/gcc-arm-none-eabi-4_7-2013q3-20130916-win32/bin/../lib/gcc/arm-none-eabi/4.7.4/../../../../arm-none-eabi/lib/armv7e-m/fpu\libm.a(lib_a-e_pow.o) (__ieee754_sqrt)
c:/coocox/gcc-arm-none-eabi-4_7-2013q3-20130916-win32/bin/../lib/gcc/arm-none-eabi/4.7.4/../../../../arm-none-eabi/lib/armv7e-m/fpu\libm.a(lib_a-ef_log.o)
                              c:/coocox/gcc-arm-none-eabi-4_7-2013q3-20130916-win32/bin/../lib/gcc/arm-none-eabi/4.7.4/../../../../arm-none-eabi/lib/armv7e-m/fpu\libm.a(lib_a-wf_log.o) (__ieee754_logf)
c:/coocox/gcc-arm-none-eabi-4_7-2013q3-20130916-win32/bin/../lib/gcc/arm-none-eabi/4.7.4/../../../../arm-none-eabi/lib/armv7e-m/fpu\libm.a(lib_a-ef_pow.o)
                              c:/coocox/gcc-arm-none-eabi-4_7-2013q3-20130916-win32/bin/../lib/gcc/arm-none-eabi/4.7.4/../../../../arm-none-eabi/lib/armv7e-m/fpu\libm.a(lib_a-wf_pow.o) (__ieee754_powf)
c:/coocox/gcc-arm-none-eabi-4_7-2013q3-20130916-win32/bin/../lib/gcc/arm-none-eabi/4.7.4/../../../../arm-none-eabi/lib/armv7e-m/fpu\libm.a(lib_a-ef_sqrt.o)
                              c:/coocox/gcc-arm-none-eabi-4_7-2013q3-20130916-win32/bin/../lib/gcc/arm-none-eabi/4.7.4/../../../../arm-none-eabi/lib/armv7e-m/fpu\libm.a(lib_a-ef_pow.o) (__ieee754_sqrtf)
c:/coocox/gcc-arm-none-eabi-4_7-2013q3-20130916-win32/bin/../lib/gcc/arm-none-eabi/4.7.4/../../../../arm-none-eabi/lib/armv7e-m/fpu\libm.a(lib_a-s_fabs.o)
                              c:/coocox/gcc-arm-none-eabi-4_7-2013q3-20130916-win32/bin/../lib/gcc/arm-none-eabi/4.7.4/../../../../arm-none-eabi/lib/armv7e-m/fpu\libm.a(lib_a-e_pow.o) (fabs)
c:/coocox/gcc-arm-none-eabi-4_7-2013q3-20130916-win32/bin/../lib/gcc/arm-none-eabi/4.7.4/../../../../arm-none-eabi/lib/armv7e-m/fpu\libm.a(lib_a-s_finite.o)
                              c:/coocox/gcc-arm-none-eabi-4_7-2013q3-20130916-win32/bin/../lib/gcc/arm-none-eabi/4.7.4/../../../../arm-none-eabi/lib/armv7e-m/fpu\libm.a(lib_a-w_pow.o) (finite)
c:/coocox/gcc-arm-none-eabi-4_7-2013q3-20130916-win32/bin/../lib/gcc/arm-none-eabi/4.7.4/../../../../arm-none-eabi/lib/armv7e-m/fpu\libm.a(lib_a-s_fpclassify.o)
                              c:/coocox/gcc-arm-none-eabi-4_7-2013q3-20130916-win32/bin/../lib/gcc/arm-none-eabi/4.7.4/../../../../arm-none-eabi/lib/armv7e-m/fpu\libm.a(lib_a-w_log10.o) (__fpclassifyd)
c:/coocox/gcc-arm-none-eabi-4_7-2013q3-20130916-win32/bin/../lib/gcc/arm-none-eabi/4.7.4/../../../../arm-none-eabi/lib/armv7e-m/fpu\libm.a(lib_a-s_lib_ver.o)
                              c:/coocox/gcc-arm-none-eabi-4_7-2013q3-20130916-win32/bin/../lib/gcc/arm-none-eabi/4.7.4/../../../../arm-none-eabi/lib/armv7e-m/fpu\libm.a(lib_a-w_log10.o) (__fdlib_version)
c:/coocox/gcc-arm-none-eabi-4_7-2013q3-20130916-win32/bin/../lib/gcc/arm-none-eabi/4.7.4/../../../../arm-none-eabi/lib/armv7e-m/fpu\libm.a(lib_a-s_matherr.o)
                              c:/coocox/gcc-arm-none-eabi-4_7-2013q3-20130916-win32/bin/../lib/gcc/arm-none-eabi/4.7.4/../../../../arm-none-eabi/lib/armv7e-m/fpu\libm.a(lib_a-w_log10.o) (matherr)
c:/coocox/gcc-arm-none-eabi-4_7-2013q3-20130916-win32/bin/../lib/gcc/arm-none-eabi/4.7.4/../../../../arm-none-eabi/lib/armv7e-m/fpu\libm.a(lib_a-s_nan.o)
                              c:/coocox/gcc-arm-none-eabi-4_7-2013q3-20130916-win32/bin/../lib/gcc/arm-none-eabi/4.7.4/../../../../arm-none-eabi/lib/armv7e-m/fpu\libm.a(lib_a-w_log10.o) (nan)
c:/coocox/gcc-arm-none-eabi-4_7-2013q3-20130916-win32/bin/../lib/gcc/arm-none-eabi/4.7.4/../../../../arm-none-eabi/lib/armv7e-m/fpu\libm.a(lib_a-s_rint.o)
                              c:/coocox/gcc-arm-none-eabi-4_7-2013q3-20130916-win32/bin/../lib/gcc/arm-none-eabi/4.7.4/../../../../arm-none-eabi/lib/armv7e-m/fpu\libm.a(lib_a-w_pow.o) (rint)
c:/coocox/gcc-arm-none-eabi-4_7-2013q3-20130916-win32/bin/../lib/gcc/arm-none-eabi/4.7.4/../../../../arm-none-eabi/lib/armv7e-m/fpu\libm.a(lib_a-s_scalbn.o)
                              c:/coocox/gcc-arm-none-eabi-4_7-2013q3-20130916-win32/bin/../lib/gcc/arm-none-eabi/4.7.4/../../../../arm-none-eabi/lib/armv7e-m/fpu\libm.a(lib_a-e_pow.o) (scalbn)
c:/coocox/gcc-arm-none-eabi-4_7-2013q3-20130916-win32/bin/../lib/gcc/arm-none-eabi/4.7.4/../../../../arm-none-eabi/lib/armv7e-m/fpu\libm.a(lib_a-sf_fabs.o)
                              c:/coocox/gcc-arm-none-eabi-4_7-2013q3-20130916-win32/bin/../lib/gcc/arm-none-eabi/4.7.4/../../../../arm-none-eabi/lib/armv7e-m/fpu\libm.a(lib_a-ef_pow.o) (fabsf)
c:/coocox/gcc-arm-none-eabi-4_7-2013q3-20130916-win32/bin/../lib/gcc/arm-none-eabi/4.7.4/../../../../arm-none-eabi/lib/armv7e-m/fpu\libm.a(lib_a-sf_finite.o)
                              c:/coocox/gcc-arm-none-eabi-4_7-2013q3-20130916-win32/bin/../lib/gcc/arm-none-eabi/4.7.4/../../../../arm-none-eabi/lib/armv7e-m/fpu\libm.a(lib_a-wf_pow.o) (finitef)
c:/coocox/gcc-arm-none-eabi-4_7-2013q3-20130916-win32/bin/../lib/gcc/arm-none-eabi/4.7.4/../../../../arm-none-eabi/lib/armv7e-m/fpu\libm.a(lib_a-sf_fpclassify.o)
                              c:/coocox/gcc-arm-none-eabi-4_7-2013q3-20130916-win32/bin/../lib/gcc/arm-none-eabi/4.7.4/../../../../arm-none-eabi/lib/armv7e-m/fpu\libm.a(lib_a-wf_log.o) (__fpclassifyf)
c:/coocox/gcc-arm-none-eabi-4_7-2013q3-20130916-win32/bin/../lib/gcc/arm-none-eabi/4.7.4/../../../../arm-none-eabi/lib/armv7e-m/fpu\libm.a(lib_a-sf_nan.o)
                              c:/coocox/gcc-arm-none-eabi-4_7-2013q3-20130916-win32/bin/../lib/gcc/arm-none-eabi/4.7.4/../../../../arm-none-eabi/lib/armv7e-m/fpu\libm.a(lib_a-ef_pow.o) (nanf)
c:/coocox/gcc-arm-none-eabi-4_7-2013q3-20130916-win32/bin/../lib/gcc/arm-none-eabi/4.7.4/../../../../arm-none-eabi/lib/armv7e-m/fpu\libm.a(lib_a-sf_scalbn.o)
                              c:/coocox/gcc-arm-none-eabi-4_7-2013q3-20130916-win32/bin/../lib/gcc/arm-none-eabi/4.7.4/../../../../arm-none-eabi/lib/armv7e-m/fpu\libm.a(lib_a-ef_pow.o) (scalbnf)
c:/coocox/gcc-arm-none-eabi-4_7-2013q3-20130916-win32/bin/../lib/gcc/arm-none-eabi/4.7.4/../../../../arm-none-eabi/lib/armv7e-m/fpu\libm.a(lib_a-e_log.o)
                              c:/coocox/gcc-arm-none-eabi-4_7-2013q3-20130916-win32/bin/../lib/gcc/arm-none-eabi/4.7.4/../../../../arm-none-eabi/lib/armv7e-m/fpu\libm.a(lib_a-e_log10.o) (__ieee754_log)
c:/coocox/gcc-arm-none-eabi-4_7-2013q3-20130916-win32/bin/../lib/gcc/arm-none-eabi/4.7.4/../../../../arm-none-eabi/lib/armv7e-m/fpu\libm.a(lib_a-s_copysign.o)
                              c:/coocox/gcc-arm-none-eabi-4_7-2013q3-20130916-win32/bin/../lib/gcc/arm-none-eabi/4.7.4/../../../../arm-none-eabi/lib/armv7e-m/fpu\libm.a(lib_a-s_scalbn.o) (copysign)
c:/coocox/gcc-arm-none-eabi-4_7-2013q3-20130916-win32/bin/../lib/gcc/arm-none-eabi/4.7.4/../../../../arm-none-eabi/lib/armv7e-m/fpu\libm.a(lib_a-sf_copysign.o)
                              c:/coocox/gcc-arm-none-eabi-4_7-2013q3-20130916-win32/bin/../lib/gcc/arm-none-eabi/4.7.4/../../../../arm-none-eabi/lib/armv7e-m/fpu\libm.a(lib_a-sf_scalbn.o) (copysignf)
c:/coocox/gcc-arm-none-eabi-4_7-2013q3-20130916-win32/bin/../lib/gcc/arm-none-eabi/4.7.4/armv7e-m/fpu\libgcc.a(_arm_addsubdf3.o)
                              ..\obj\HTU21D.o (__aeabi_dsub)
c:/coocox/gcc-arm-none-eabi-4_7-2013q3-20130916-win32/bin/../lib/gcc/arm-none-eabi/4.7.4/armv7e-m/fpu\libgcc.a(_arm_muldivdf3.o)
                              ..\obj\HTU21D.o (__aeabi_dmul)
c:/coocox/gcc-arm-none-eabi-4_7-2013q3-20130916-win32/bin/../lib/gcc/arm-none-eabi/4.7.4/armv7e-m/fpu\libgcc.a(_arm_cmpdf2.o)
                              c:/coocox/gcc-arm-none-eabi-4_7-2013q3-20130916-win32/bin/../lib/gcc/arm-none-eabi/4.7.4/../../../../arm-none-eabi/lib/armv7e-m/fpu\libm.a(lib_a-w_log10.o) (__aeabi_dcmpeq)
c:/coocox/gcc-arm-none-eabi-4_7-2013q3-20130916-win32/bin/../lib/gcc/arm-none-eabi/4.7.4/armv7e-m/fpu\libgcc.a(_arm_fixdfsi.o)
                              ..\obj\HTU21D.o (__aeabi_d2iz)
c:/coocox/gcc-arm-none-eabi-4_7-2013q3-20130916-win32/bin/../lib/gcc/arm-none-eabi/4.7.4/armv7e-m/fpu\libgcc.a(_arm_fixunsdfsi.o)
                              ..\obj\utilities.o (__aeabi_d2uiz)
c:/coocox/gcc-arm-none-eabi-4_7-2013q3-20130916-win32/bin/../lib/gcc/arm-none-eabi/4.7.4/armv7e-m/fpu\libgcc.a(_arm_truncdfsf2.o)
                              ..\obj\HTU21D.o (__aeabi_d2f)
c:/coocox/gcc-arm-none-eabi-4_7-2013q3-20130916-win32/bin/../lib/gcc/arm-none-eabi/4.7.4/../../../../arm-none-eabi/lib/armv7e-m/fpu\libg.a(lib_a-errno.o)
                              c:/coocox/gcc-arm-none-eabi-4_7-2013q3-20130916-win32/bin/../lib/gcc/arm-none-eabi/4.7.4/../../../../arm-none-eabi/lib/armv7e-m/fpu\libm.a(lib_a-w_log10.o) (__errno)
c:/coocox/gcc-arm-none-eabi-4_7-2013q3-20130916-win32/bin/../lib/gcc/arm-none-eabi/4.7.4/../../../../arm-none-eabi/lib/armv7e-m/fpu\libg.a(lib_a-impure.o)
                              c:/coocox/gcc-arm-none-eabi-4_7-2013q3-20130916-win32/bin/../lib/gcc/arm-none-eabi/4.7.4/../../../../arm-none-eabi/lib/armv7e-m/fpu\libg.a(lib_a-errno.o) (_impure_ptr)
c:/coocox/gcc-arm-none-eabi-4_7-2013q3-20130916-win32/bin/../lib/gcc/arm-none-eabi/4.7.4/../../../../arm-none-eabi/lib/armv7e-m/fpu\libg.a(lib_a-memcpy.o)
                              ..\obj\config.o (memcpy)
c:/coocox/gcc-arm-none-eabi-4_7-2013q3-20130916-win32/bin/../lib/gcc/arm-none-eabi/4.7.4/../../../../arm-none-eabi/lib/armv7e-m/fpu\libg.a(lib_a-strcat.o)
                              ..\obj\MS5607.o (strcat)
c:/coocox/gcc-arm-none-eabi-4_7-2013q3-20130916-win32/bin/../lib/gcc/arm-none-eabi/4.7.4/../../../../arm-none-eabi/lib/armv7e-m/fpu\libg.a(lib_a-strchr.o)
                              ..\obj\comms.o (strchr)
c:/coocox/gcc-arm-none-eabi-4_7-2013q3-20130916-win32/bin/../lib/gcc/arm-none-eabi/4.7.4/../../../../arm-none-eabi/lib/armv7e-m/fpu\libg.a(lib_a-strcmp.o)
                              ..\obj\comms.o (strcmp)
c:/coocox/gcc-arm-none-eabi-4_7-2013q3-20130916-win32/bin/../lib/gcc/arm-none-eabi/4.7.4/../../../../arm-none-eabi/lib/armv7e-m/fpu\libg.a(lib_a-strcpy.o)
                              c:/coocox/gcc-arm-none-eabi-4_7-2013q3-20130916-win32/bin/../lib/gcc/arm-none-eabi/4.7.4/../../../../arm-none-eabi/lib/armv7e-m/fpu\libg.a(lib_a-strcat.o) (strcpy)
c:/coocox/gcc-arm-none-eabi-4_7-2013q3-20130916-win32/bin/../lib/gcc/arm-none-eabi/4.7.4/../../../../arm-none-eabi/lib/armv7e-m/fpu\libg.a(lib_a-strlen.o)
                              ..\obj\MS5607.o (strlen)
c:/coocox/gcc-arm-none-eabi-4_7-2013q3-20130916-win32/bin/../lib/gcc/arm-none-eabi/4.7.4/../../../../arm-none-eabi/lib/armv7e-m/fpu\libg.a(lib_a-strtok.o)
                              ..\obj\comms.o (strtok)
c:/coocox/gcc-arm-none-eabi-4_7-2013q3-20130916-win32/bin/../lib/gcc/arm-none-eabi/4.7.4/../../../../arm-none-eabi/lib/armv7e-m/fpu\libg.a(lib_a-strtok_r.o)
                              c:/coocox/gcc-arm-none-eabi-4_7-2013q3-20130916-win32/bin/../lib/gcc/arm-none-eabi/4.7.4/../../../../arm-none-eabi/lib/armv7e-m/fpu\libg.a(lib_a-strtok.o) (__strtok_r)
c:/coocox/gcc-arm-none-eabi-4_7-2013q3-20130916-win32/bin/../lib/gcc/arm-none-eabi/4.7.4/../../../../arm-none-eabi/lib/armv7e-m/fpu\libg.a(lib_a-strupr.o)
                              ..\obj\comms.o (strupr)
c:/coocox/gcc-arm-none-eabi-4_7-2013q3-20130916-win32/bin/../lib/gcc/arm-none-eabi/4.7.4/../../../../arm-none-eabi/lib/armv7e-m/fpu\libg.a(lib_a-ctype_.o)
                              c:/coocox/gcc-arm-none-eabi-4_7-2013q3-20130916-win32/bin/../lib/gcc/arm-none-eabi/4.7.4/../../../../arm-none-eabi/lib/armv7e-m/fpu\libg.a(lib_a-strupr.o) (__ctype_ptr__)

Allocating common symbols
Common symbol       size              file

iMetX_Default       0x50              ..\obj\config.o
External_UBlox      0x128             ..\obj\UBlox.o
External_MLX90614   0x24              ..\obj\MS5607.o
ADS1115_4           0xc               ..\obj\ADS1115.o
External_NTCA       0x94              ..\obj\MS5607.o
External_NTCD       0x94              ..\obj\MS5607.o
External_CH4_D      0x40              ..\obj\MS5607.o
External_CH4_A      0x40              ..\obj\MS5607.o
Internal_HTU21D     0x30              ..\obj\MS5607.o
ptrMessage          0x4               ..\obj\comms.o
External_PT100B     0x44              ..\obj\MS5607.o
External_HYT271_A   0x14              ..\obj\HYT271.o
Blue_LED_State      0x1               ..\obj\peripherals.o
Message             0x12c             ..\obj\Main.o
ADS1115_1           0xc               ..\obj\ADS1115.o
External_HYT271_B   0x14              ..\obj\HYT271.o
External_CO_C       0x40              ..\obj\MS5607.o
External_NTCC       0x94              ..\obj\MS5607.o
External_EE03       0x30              ..\obj\MS5607.o
External_CH4_C      0x40              ..\obj\MS5607.o
ADS1115_3           0xc               ..\obj\ADS1115.o
External_CO_D       0x40              ..\obj\MS5607.o
External_CH4_B      0x40              ..\obj\MS5607.o
iMetX_Config        0x50              ..\obj\config.o
TxProtocol          0x1               ..\obj\MS5607.o
External_NTCB       0x94              ..\obj\MS5607.o
External_PT100A     0x44              ..\obj\MS5607.o
External_HTU21D     0x30              ..\obj\MS5607.o
Flag_DRR            0x1               ..\obj\peripherals.o
ADS1115_2           0xc               ..\obj\ADS1115.o
External_CO_A       0x40              ..\obj\MS5607.o
External_CO_B       0x40              ..\obj\MS5607.o
CommandType         0x1               ..\obj\comms.o
Comms_Tx            0x12e             ..\obj\MS5607.o
Internal_MS5607     0x40              ..\obj\MS5607.o
Comms_Rx            0x12f             ..\obj\MS5607.o

Discarded input sections

 .text          0x00000000        0x0 ..\obj\stm32f37x_dbgmcu.o
 .data          0x00000000        0x0 ..\obj\stm32f37x_dbgmcu.o
 .bss           0x00000000        0x0 ..\obj\stm32f37x_dbgmcu.o
 .text.DBGMCU_GetREVID
                0x00000000       0x1c ..\obj\stm32f37x_dbgmcu.o
 .text.DBGMCU_GetDEVID
                0x00000000       0x20 ..\obj\stm32f37x_dbgmcu.o
 .text.DBGMCU_Config
                0x00000000       0x54 ..\obj\stm32f37x_dbgmcu.o
 .text.DBGMCU_APB1PeriphConfig
                0x00000000       0x54 ..\obj\stm32f37x_dbgmcu.o
 .text.DBGMCU_APB2PeriphConfig
                0x00000000       0x54 ..\obj\stm32f37x_dbgmcu.o
 .debug_info    0x00000000      0x1ed ..\obj\stm32f37x_dbgmcu.o
 .debug_abbrev  0x00000000       0xe0 ..\obj\stm32f37x_dbgmcu.o
 .debug_loc     0x00000000      0x100 ..\obj\stm32f37x_dbgmcu.o
 .debug_aranges
                0x00000000       0x40 ..\obj\stm32f37x_dbgmcu.o
Memory Configuration

Name             Origin             Length             Attributes
rom              0x08000000         0x00010000         xr
ram              0x20000000         0x00008000         xrw
ram1             0x10000000         0x00010000         xrw
*default*        0x00000000         0xffffffff

Linker script and memory map

                0x20008000                _eram = 0x20008000

.text           0x08000000     0xe2b8
 *(.isr_vector)
 .isr_vector    0x08000000      0x184 ..\obj\startup_stm32f37x.o
                0x08000000                g_pfnVectors
 *(.text*)
 .text.NVIC_Init
                0x08000184       0xe8 ..\obj\stm32f37x_misc.o
                0x08000184                NVIC_Init
 .text.WriteI2C
                0x0800026c       0xb8 ..\obj\MS5607.o
 .text.ReadI2C  0x08000324       0xc4 ..\obj\MS5607.o
 .text.GetCalibrationCoefficients
                0x080003e8      0x124 ..\obj\MS5607.o
 .text.CalculateSensorData
                0x0800050c      0x3b8 ..\obj\MS5607.o
 .text.StartConversion
                0x080008c4       0x3c ..\obj\MS5607.o
 .text.GetConversion
                0x08000900       0x7c ..\obj\MS5607.o
 .text.MS5607_Init
                0x0800097c       0xa4 ..\obj\MS5607.o
                0x0800097c                MS5607_Init
 .text.MS5607_Reset
                0x08000a20       0x64 ..\obj\MS5607.o
                0x08000a20                MS5607_Reset
 .text.MS5607_Handler
                0x08000a84      0x174 ..\obj\MS5607.o
                0x08000a84                MS5607_Handler
 .text.HTU21D_WriteI2C
                0x08000bf8       0xdc ..\obj\HTU21D.o
                0x08000bf8                HTU21D_WriteI2C
 .text.HTU21D_ReadI2C
                0x08000cd4       0xc4 ..\obj\HTU21D.o
                0x08000cd4                HTU21D_ReadI2C
 .text.HTU21D_StartTemp
                0x08000d98       0x1c ..\obj\HTU21D.o
                0x08000d98                HTU21D_StartTemp
 .text.HTU21D_StartHum
                0x08000db4       0x1c ..\obj\HTU21D.o
                0x08000db4                HTU21D_StartHum
 .text.HTU21D_ReadTemp
                0x08000dd0       0xf8 ..\obj\HTU21D.o
                0x08000dd0                HTU21D_ReadTemp
 .text.HTU21D_ReadHum
                0x08000ec8       0xec ..\obj\HTU21D.o
                0x08000ec8                HTU21D_ReadHum
 *fill*         0x08000fb4        0x4 00
 .text.HTU21D_CorrectRH
                0x08000fb8      0x178 ..\obj\HTU21D.o
                0x08000fb8                HTU21D_CorrectRH
 .text.HTU21D_Init
                0x08001130       0x50 ..\obj\HTU21D.o
                0x08001130                HTU21D_Init
 .text.HTU21D_Reset
                0x08001180       0x34 ..\obj\HTU21D.o
                0x08001180                HTU21D_Reset
 .text.HTU21D_Handler
                0x080011b4      0x15c ..\obj\HTU21D.o
                0x080011b4                HTU21D_Handler
 .text.I2C_DeInit
                0x08001310       0x50 ..\obj\stm32f37x_i2c.o
                0x08001310                I2C_DeInit
 .text.I2C_Init
                0x08001360       0xd0 ..\obj\stm32f37x_i2c.o
                0x08001360                I2C_Init
 .text.I2C_Cmd  0x08001430       0x38 ..\obj\stm32f37x_i2c.o
                0x08001430                I2C_Cmd
 .text.I2C_TransferHandling
                0x08001468       0x60 ..\obj\stm32f37x_i2c.o
                0x08001468                I2C_TransferHandling
 .text.I2C_SendData
                0x080014c8       0x1c ..\obj\stm32f37x_i2c.o
                0x080014c8                I2C_SendData
 .text.I2C_ReceiveData
                0x080014e4       0x1c ..\obj\stm32f37x_i2c.o
                0x080014e4                I2C_ReceiveData
 .text.I2C_GetFlagStatus
                0x08001500       0x48 ..\obj\stm32f37x_i2c.o
                0x08001500                I2C_GetFlagStatus
 .text.I2C_ClearFlag
                0x08001548       0x1c ..\obj\stm32f37x_i2c.o
                0x08001548                I2C_ClearFlag
 .text.ReadI2C  0x08001564      0x164 ..\obj\EE03.o
 .text.ReadHumidity
                0x080016c8       0x80 ..\obj\EE03.o
 .text.ReadTemperature
                0x08001748       0x74 ..\obj\EE03.o
 .text.EE03_Init
                0x080017bc       0xdc ..\obj\EE03.o
                0x080017bc                EE03_Init
 .text.EE03_Handler
                0x08001898      0x13c ..\obj\EE03.o
                0x08001898                EE03_Handler
 .text.main     0x080019d4       0xa0 ..\obj\Main.o
                0x080019d4                main
 .text.InitializeSensors
                0x08001a74      0x750 ..\obj\Main.o
 .text.StartSensorMeasurements
                0x080021c4       0xb4 ..\obj\Main.o
 .text.ExternalSensorHandler
                0x08002278      0x1e4 ..\obj\Main.o
 .text.Config_Init
                0x0800245c      0x184 ..\obj\config.o
                0x0800245c                Config_Init
 .text.Config_Save
                0x080025e0       0xd0 ..\obj\config.o
                0x080025e0                Config_Save
 .text.Config_Get
                0x080026b0       0xa8 ..\obj\config.o
                0x080026b0                Config_Get
 .text.Reset_Handler
                0x08002758       0x54 ..\obj\startup_stm32f37x.o
                0x08002758                Reset_Handler
 .text.Default_Handler
                0x080027ac        0x4 ..\obj\startup_stm32f37x.o
                0x080027ac                RTC_Alarm_IRQHandler
                0x080027ac                DebugMon_Handler
                0x080027ac                HardFault_Handler
                0x080027ac                USB_HP_IRQHandler
                0x080027ac                SysTick_Handler
                0x080027ac                PVD_IRQHandler
                0x080027ac                PendSV_Handler
                0x080027ac                NMI_Handler
                0x080027ac                EXTI3_IRQHandler
                0x080027ac                EXTI0_IRQHandler
                0x080027ac                I2C2_EV_IRQHandler
                0x080027ac                CAN1_RX0_IRQHandler
                0x080027ac                FPU_IRQHandler
                0x080027ac                EXTI2_TS_IRQHandler
                0x080027ac                UsageFault_Handler
                0x080027ac                SPI1_IRQHandler
                0x080027ac                DMA2_Channel2_IRQHandler
                0x080027ac                DMA1_Channel4_IRQHandler
                0x080027ac                ADC1_IRQHandler
                0x080027ac                TIM17_IRQHandler
                0x080027ac                USART3_IRQHandler
                0x080027ac                DMA1_Channel7_IRQHandler
                0x080027ac                CAN1_RX1_IRQHandler
                0x080027ac                DMA2_Channel1_IRQHandler
                0x080027ac                I2C1_EV_IRQHandler
                0x080027ac                DMA1_Channel6_IRQHandler
                0x080027ac                TIM16_IRQHandler
                0x080027ac                DMA2_Channel4_IRQHandler
                0x080027ac                TIM3_IRQHandler
                0x080027ac                RCC_IRQHandler
                0x080027ac                DMA1_Channel1_IRQHandler
                0x080027ac                Default_Handler
                0x080027ac                CEC_IRQHandler
                0x080027ac                EXTI15_10_IRQHandler
                0x080027ac                TIM14_IRQHandler
                0x080027ac                TIM13_IRQHandler
                0x080027ac                TIM12_IRQHandler
                0x080027ac                TIM7_IRQHandler
                0x080027ac                TIM5_IRQHandler
                0x080027ac                SDADC2_IRQHandler
                0x080027ac                TIM15_IRQHandler
                0x080027ac                TIM6_DAC1_IRQHandler
                0x080027ac                EXTI9_5_IRQHandler
                0x080027ac                TAMPER_STAMP_IRQHandler
                0x080027ac                RTC_WKUP_IRQHandler
                0x080027ac                SPI2_IRQHandler
                0x080027ac                MemManage_Handler
                0x080027ac                CAN1_TX_IRQHandler
                0x080027ac                SVC_Handler
                0x080027ac                DMA2_Channel5_IRQHandler
                0x080027ac                DMA1_Channel5_IRQHandler
                0x080027ac                USB_LP_IRQHandler
                0x080027ac                EXTI4_IRQHandler
                0x080027ac                TIM18_DAC2_IRQHandler
                0x080027ac                DMA1_Channel3_IRQHandler
                0x080027ac                COMP_IRQHandler
                0x080027ac                WWDG_IRQHandler
                0x080027ac                SDADC1_IRQHandler
                0x080027ac                EXTI1_IRQHandler
                0x080027ac                SDADC3_IRQHandler
                0x080027ac                I2C2_ER_IRQHandler
                0x080027ac                DMA1_Channel2_IRQHandler
                0x080027ac                CAN1_SCE_IRQHandler
                0x080027ac                FLASH_IRQHandler
                0x080027ac                BusFault_Handler
                0x080027ac                USART1_IRQHandler
                0x080027ac                SPI3_IRQHandler
                0x080027ac                I2C1_ER_IRQHandler
                0x080027ac                USBWakeUp_IRQHandler
                0x080027ac                DMA2_Channel3_IRQHandler
 .text.TIM_TimeBaseInit
                0x080027b0      0x100 ..\obj\stm32f37x_tim.o
                0x080027b0                TIM_TimeBaseInit
 .text.TIM_SetCounter
                0x080028b0       0x1c ..\obj\stm32f37x_tim.o
                0x080028b0                TIM_SetCounter
 .text.TIM_SetAutoreload
                0x080028cc       0x1c ..\obj\stm32f37x_tim.o
                0x080028cc                TIM_SetAutoreload
 .text.TIM_GetCounter
                0x080028e8       0x18 ..\obj\stm32f37x_tim.o
                0x080028e8                TIM_GetCounter
 .text.TIM_Cmd  0x08002900       0x40 ..\obj\stm32f37x_tim.o
                0x08002900                TIM_Cmd
 .text.TIM_SetCompare2
                0x08002940       0x1c ..\obj\stm32f37x_tim.o
                0x08002940                TIM_SetCompare2
 .text.TIM_ITConfig
                0x0800295c       0x48 ..\obj\stm32f37x_tim.o
                0x0800295c                TIM_ITConfig
 .text.TIM_ClearFlag
                0x080029a4       0x24 ..\obj\stm32f37x_tim.o
                0x080029a4                TIM_ClearFlag
 .text.TIM_GetITStatus
                0x080029c8       0x60 ..\obj\stm32f37x_tim.o
                0x080029c8                TIM_GetITStatus
 .text.TIM_ClearITPendingBit
                0x08002a28       0x24 ..\obj\stm32f37x_tim.o
                0x08002a28                TIM_ClearITPendingBit
 .text.DelayMs  0x08002a4c       0x4c ..\obj\utilities.o
                0x08002a4c                DelayMs
 .text.ReadInt  0x08002a98       0xbc ..\obj\utilities.o
                0x08002a98                ReadInt
 *fill*         0x08002b54        0x4 00
 .text.ReadFloat
                0x08002b58      0x3d0 ..\obj\utilities.o
                0x08002b58                ReadFloat
 .text.sprintUnsignedNumber
                0x08002f28       0x94 ..\obj\utilities.o
                0x08002f28                sprintUnsignedNumber
 .text.sprintSignedNumber
                0x08002fbc       0xb8 ..\obj\utilities.o
                0x08002fbc                sprintSignedNumber
 *fill*         0x08003074        0x4 00
 .text.sprintFloat
                0x08003078      0x2d0 ..\obj\utilities.o
                0x08003078                sprintFloat
 .text.sprintHex
                0x08003348       0x90 ..\obj\utilities.o
                0x08003348                sprintHex
 .text.Fletcher8Bit
                0x080033d8       0x68 ..\obj\utilities.o
                0x080033d8                Fletcher8Bit
 .text.WWDG_SetPrescaler
                0x08003440       0x3c ..\obj\stm32f37x_wwdg.o
                0x08003440                WWDG_SetPrescaler
 .text.WWDG_SetWindowValue
                0x0800347c       0x44 ..\obj\stm32f37x_wwdg.o
                0x0800347c                WWDG_SetWindowValue
 .text.WWDG_SetCounter
                0x080034c0       0x24 ..\obj\stm32f37x_wwdg.o
                0x080034c0                WWDG_SetCounter
 .text.WWDG_Enable
                0x080034e4       0x28 ..\obj\stm32f37x_wwdg.o
                0x080034e4                WWDG_Enable
 *fill*         0x0800350c        0x4 00
 .text.CalculateResistance
                0x08003510      0x160 ..\obj\thermistor.o
 .text.CalculateTemperature
                0x08003670       0xd8 ..\obj\thermistor.o
 .text.Thermistor_Init
                0x08003748      0x218 ..\obj\thermistor.o
                0x08003748                Thermistor_Init
 .text.Thermistor_Handler
                0x08003960      0x250 ..\obj\thermistor.o
                0x08003960                Thermistor_Handler
 .text.InitMode
                0x08003bb0      0x244 ..\obj\ADS1115.o
 .text.SetConfig
                0x08003df4      0x144 ..\obj\ADS1115.o
 .text.GetConfig
                0x08003f38      0x1f4 ..\obj\ADS1115.o
 .text.GetConversion
                0x0800412c      0x26c ..\obj\ADS1115.o
 .text.ADS1115_Init
                0x08004398      0x190 ..\obj\ADS1115.o
                0x08004398                ADS1115_Init
 .text.ADS1115_SetConfig
                0x08004528      0x154 ..\obj\ADS1115.o
                0x08004528                ADS1115_SetConfig
 .text.ADS1115_GetConvStatus
                0x0800467c       0x4c ..\obj\ADS1115.o
                0x0800467c                ADS1115_GetConvStatus
 .text.ADS1115_StartConversion
                0x080046c8      0x190 ..\obj\ADS1115.o
                0x080046c8                ADS1115_StartConversion
 .text.ADS1115_GetVoltage
                0x08004858       0xc0 ..\obj\ADS1115.o
                0x08004858                ADS1115_GetVoltage
 .text.PWR_PVDLevelConfig
                0x08004918       0x40 ..\obj\stm32f37x_pwr.o
                0x08004918                PWR_PVDLevelConfig
 .text.PWR_PVDCmd
                0x08004958       0x20 ..\obj\stm32f37x_pwr.o
                0x08004958                PWR_PVDCmd
 .text.PWR_GetFlagStatus
                0x08004978       0x3c ..\obj\stm32f37x_pwr.o
                0x08004978                PWR_GetFlagStatus
 *fill*         0x080049b4        0x4 00
 .text.CalculateResistance
                0x080049b8       0x58 ..\obj\pt100.o
 .text.CalculateTemperature
                0x08004a10       0xd0 ..\obj\pt100.o
 .text.PT100_Init
                0x08004ae0       0xb8 ..\obj\pt100.o
                0x08004ae0                PT100_Init
 .text.PT100_Handler
                0x08004b98      0x184 ..\obj\pt100.o
                0x08004b98                PT100_Handler
 .text.USART_DeInit
                0x08004d1c       0x88 ..\obj\stm32f37x_usart.o
                0x08004d1c                USART_DeInit
 .text.USART_Init
                0x08004da4      0x168 ..\obj\stm32f37x_usart.o
                0x08004da4                USART_Init
 .text.USART_Cmd
                0x08004f0c       0x38 ..\obj\stm32f37x_usart.o
                0x08004f0c                USART_Cmd
 .text.USART_SendData
                0x08004f44       0x28 ..\obj\stm32f37x_usart.o
                0x08004f44                USART_SendData
 .text.USART_ReceiveData
                0x08004f6c       0x24 ..\obj\stm32f37x_usart.o
                0x08004f6c                USART_ReceiveData
 .text.USART_ITConfig
                0x08004f90       0x94 ..\obj\stm32f37x_usart.o
                0x08004f90                USART_ITConfig
 .text.USART_GetFlagStatus
                0x08005024       0x38 ..\obj\stm32f37x_usart.o
                0x08005024                USART_GetFlagStatus
 .text.USART_ClearFlag
                0x0800505c       0x1c ..\obj\stm32f37x_usart.o
                0x0800505c                USART_ClearFlag
 .text.USART_GetITStatus
                0x08005078       0xb4 ..\obj\stm32f37x_usart.o
                0x08005078                USART_GetITStatus
 .text.UBlox_WriteI2C
                0x0800512c       0xe0 ..\obj\UBlox.o
 .text.UBlox_ReadI2C
                0x0800520c       0x94 ..\obj\UBlox.o
 .text.UBlox_AddToBuffer
                0x080052a0       0x3c ..\obj\UBlox.o
 .text.UBlox_ClearBuffer
                0x080052dc       0x44 ..\obj\UBlox.o
 .text.UBlox_DecodeMessage
                0x08005320      0x100 ..\obj\UBlox.o
 .text.UBlox_GetAck
                0x08005420       0xe0 ..\obj\UBlox.o
 .text.ConfigurePort
                0x08005500      0x144 ..\obj\UBlox.o
 .text.ConfigureMessage
                0x08005644       0xbc ..\obj\UBlox.o
 .text.UBlox_ValidityCheck
                0x08005700      0x104 ..\obj\UBlox.o
 .text.UBlox_Init
                0x08005804       0x8c ..\obj\UBlox.o
                0x08005804                UBlox_Init
 .text.UBlox_Reset
                0x08005890       0xa4 ..\obj\UBlox.o
                0x08005890                UBlox_Reset
 .text.UBlox_Handler
                0x08005934      0x410 ..\obj\UBlox.o
                0x08005934                UBlox_Handler
 .text.CRC_DeInit
                0x08005d44       0x54 ..\obj\stm32f37x_crc.o
                0x08005d44                CRC_DeInit
 .text.CRC_CalcBlockCRC
                0x08005d98       0x54 ..\obj\stm32f37x_crc.o
                0x08005d98                CRC_CalcBlockCRC
 .text.SystemInit
                0x08005dec       0xf4 ..\obj\system_stm32f37x.o
                0x08005dec                SystemInit
 .text.SetSysClock
                0x08005ee0      0x170 ..\obj\system_stm32f37x.o
 .text.MeasurementRequest
                0x08006050       0x90 ..\obj\HYT271.o
 .text.DataFetch
                0x080060e0      0x148 ..\obj\HYT271.o
 .text.CalculateSensorValues
                0x08006228      0x110 ..\obj\HYT271.o
 .text.HYT271_Init
                0x08006338       0x7c ..\obj\HYT271.o
                0x08006338                HYT271_Init
 .text.HYT271_Handler
                0x080063b4       0xe0 ..\obj\HYT271.o
                0x080063b4                HYT271_Handler
 .text.RCC_I2CCLKConfig
                0x08006494       0x70 ..\obj\stm32f37x_rcc.o
                0x08006494                RCC_I2CCLKConfig
 .text.RCC_GetClocksFreq
                0x08006504      0x3e0 ..\obj\stm32f37x_rcc.o
                0x08006504                RCC_GetClocksFreq
 .text.RCC_AHBPeriphClockCmd
                0x080068e4       0x54 ..\obj\stm32f37x_rcc.o
                0x080068e4                RCC_AHBPeriphClockCmd
 .text.RCC_APB2PeriphClockCmd
                0x08006938       0x54 ..\obj\stm32f37x_rcc.o
                0x08006938                RCC_APB2PeriphClockCmd
 .text.RCC_APB1PeriphClockCmd
                0x0800698c       0x54 ..\obj\stm32f37x_rcc.o
                0x0800698c                RCC_APB1PeriphClockCmd
 .text.RCC_APB2PeriphResetCmd
                0x080069e0       0x54 ..\obj\stm32f37x_rcc.o
                0x080069e0                RCC_APB2PeriphResetCmd
 .text.RCC_APB1PeriphResetCmd
                0x08006a34       0x54 ..\obj\stm32f37x_rcc.o
                0x08006a34                RCC_APB1PeriphResetCmd
 .text.InitPSS  0x08006a88       0x28 ..\obj\peripherals.o
 .text.InitUserTimer
                0x08006ab0       0xa0 ..\obj\peripherals.o
 .text.InitLEDsGPIO
                0x08006b50       0x58 ..\obj\peripherals.o
 .text.InitDRRTimer
                0x08006ba8       0x94 ..\obj\peripherals.o
 .text.InitWaitTimer
                0x08006c3c       0xa4 ..\obj\peripherals.o
 .text.InitWaitChannels
                0x08006ce0       0x6c ..\obj\peripherals.o
 .text.InitIntI2C
                0x08006d4c      0x114 ..\obj\peripherals.o
 .text.InitExtI2C
                0x08006e60      0x104 ..\obj\peripherals.o
 .text.InitWatchdog
                0x08006f64       0x24 ..\obj\peripherals.o
 .text.Periph_Init
                0x08006f88       0x54 ..\obj\peripherals.o
                0x08006f88                Periph_Init
 .text.GetWaitFlagStatus
                0x08006fdc       0x24 ..\obj\peripherals.o
                0x08006fdc                GetWaitFlagStatus
 .text.StartDRRTimer
                0x08007000       0x38 ..\obj\peripherals.o
                0x08007000                StartDRRTimer
 .text.StopDRRTimer
                0x08007038       0x2c ..\obj\peripherals.o
                0x08007038                StopDRRTimer
 .text.GetDRRFlagStatus
                0x08007064       0x18 ..\obj\peripherals.o
                0x08007064                GetDRRFlagStatus
 .text.ClearDRRFlag
                0x0800707c       0x18 ..\obj\peripherals.o
                0x0800707c                ClearDRRFlag
 .text.SetLEDState
                0x08007094      0x11c ..\obj\peripherals.o
                0x08007094                SetLEDState
 .text.Wait     0x080071b0       0x9c ..\obj\peripherals.o
                0x080071b0                Wait
 .text.Periph_ChangeI2CSpeed
                0x0800724c       0x80 ..\obj\peripherals.o
                0x0800724c                Periph_ChangeI2CSpeed
 .text.Periph_I2C_FaultHandler
                0x080072cc       0x48 ..\obj\peripherals.o
                0x080072cc                Periph_I2C_FaultHandler
 .text.WaitHandler
                0x08007314       0xa8 ..\obj\peripherals.o
                0x08007314                WaitHandler
 .text.TIM2_IRQHandler
                0x080073bc       0x34 ..\obj\peripherals.o
                0x080073bc                TIM2_IRQHandler
 .text.TIM4_IRQHandler
                0x080073f0       0x4c ..\obj\peripherals.o
                0x080073f0                TIM4_IRQHandler
 .text.TIM19_IRQHandler
                0x0800743c      0x100 ..\obj\peripherals.o
                0x0800743c                TIM19_IRQHandler
 .text.GPIO_Init
                0x0800753c      0x150 ..\obj\stm32f37x_gpio.o
                0x0800753c                GPIO_Init
 .text.GPIO_SetBits
                0x0800768c       0x1c ..\obj\stm32f37x_gpio.o
                0x0800768c                GPIO_SetBits
 .text.GPIO_ResetBits
                0x080076a8       0x1c ..\obj\stm32f37x_gpio.o
                0x080076a8                GPIO_ResetBits
 .text.GPIO_PinAFConfig
                0x080076c4       0xa8 ..\obj\stm32f37x_gpio.o
                0x080076c4                GPIO_PinAFConfig
 .text.MLX90614_ReadRegister
                0x0800776c      0x240 ..\obj\MLX90614.o
 .text.MLX90614_GetAmbientTemperature
                0x080079ac       0x4c ..\obj\MLX90614.o
 .text.MLX90614_GetObject1Temperature
                0x080079f8       0x4c ..\obj\MLX90614.o
 .text.MLX90614_Init
                0x08007a44       0xa0 ..\obj\MLX90614.o
                0x08007a44                MLX90614_Init
 .text.MLX90614_Handler
                0x08007ae4      0x14c ..\obj\MLX90614.o
                0x08007ae4                MLX90614_Handler
 .text.CalculateCarbonMonoxidePPM
                0x08007c30       0xf8 ..\obj\chemical.o
 .text.CalculateMethanePPM
                0x08007d28      0x110 ..\obj\chemical.o
 .text.Chemical_Init
                0x08007e38       0xe4 ..\obj\chemical.o
                0x08007e38                Chemical_Init
 .text.Chemical_Handler
                0x08007f1c      0x2f4 ..\obj\chemical.o
                0x08007f1c                Chemical_Handler
 .text.InitUSART
                0x08008210      0x150 ..\obj\comms.o
 .text.TransmissionHandler
                0x08008360       0xb0 ..\obj\comms.o
 .text.ReceptionHandler
                0x08008410      0x108 ..\obj\comms.o
 .text.GetMessage
                0x08008518      0x108 ..\obj\comms.o
 .text.BuildASCII
                0x08008620      0x640 ..\obj\comms.o
 .text.BuildXData
                0x08008c60      0x2f8 ..\obj\comms.o
 .text.RST_Handler
                0x08008f58       0x34 ..\obj\comms.o
 .text.DRR_Handler
                0x08008f8c      0x17c ..\obj\comms.o
 .text.SAV_Handler
                0x08009108       0x48 ..\obj\comms.o
 .text.SRN_Handler
                0x08009150      0x174 ..\obj\comms.o
 .text.STX_Handler
                0x080092c4      0x650 ..\obj\comms.o
 .text.TXP_Handler
                0x08009914      0x19c ..\obj\comms.o
 .text.ADX_Handler
                0x08009ab0      0x240 ..\obj\comms.o
 .text.Comms_Init
                0x08009cf0      0x110 ..\obj\comms.o
                0x08009cf0                Comms_Init
 .text.Comms_TransmitMessage
                0x08009e00       0xbc ..\obj\comms.o
                0x08009e00                Comms_TransmitMessage
 .text.Comms_MessageHandler
                0x08009ebc      0x494 ..\obj\comms.o
                0x08009ebc                Comms_MessageHandler
 .text.Comms_BuildMessage
                0x0800a350       0x30 ..\obj\comms.o
                0x0800a350                Comms_BuildMessage
 .text.USART2_IRQHandler
                0x0800a380       0x44 ..\obj\comms.o
                0x0800a380                USART2_IRQHandler
 .text.FLASH_Unlock
                0x0800a3c4       0x40 ..\obj\stm32f37x_flash.o
                0x0800a3c4                FLASH_Unlock
 .text.FLASH_Lock
                0x0800a404       0x24 ..\obj\stm32f37x_flash.o
                0x0800a404                FLASH_Lock
 .text.FLASH_ErasePage
                0x0800a428       0x8c ..\obj\stm32f37x_flash.o
                0x0800a428                FLASH_ErasePage
 .text.FLASH_ProgramHalfWord
                0x0800a4b4       0x74 ..\obj\stm32f37x_flash.o
                0x0800a4b4                FLASH_ProgramHalfWord
 .text.FLASH_ClearFlag
                0x0800a528       0x20 ..\obj\stm32f37x_flash.o
                0x0800a528                FLASH_ClearFlag
 .text.FLASH_GetStatus
                0x0800a548       0x70 ..\obj\stm32f37x_flash.o
                0x0800a548                FLASH_GetStatus
 .text.FLASH_WaitForLastOperation
                0x0800a5b8       0x4c ..\obj\stm32f37x_flash.o
                0x0800a5b8                FLASH_WaitForLastOperation
 .text.round    0x0800a604       0xa8 c:/coocox/gcc-arm-none-eabi-4_7-2013q3-20130916-win32/bin/../lib/gcc/arm-none-eabi/4.7.4/../../../../arm-none-eabi/lib/armv7e-m/fpu\libm.a(lib_a-s_round.o)
                0x0800a604                round
 .text.log10    0x0800a6ac       0xfc c:/coocox/gcc-arm-none-eabi-4_7-2013q3-20130916-win32/bin/../lib/gcc/arm-none-eabi/4.7.4/../../../../arm-none-eabi/lib/armv7e-m/fpu\libm.a(lib_a-w_log10.o)
                0x0800a6ac                log10
 .text.pow      0x0800a7a8      0x368 c:/coocox/gcc-arm-none-eabi-4_7-2013q3-20130916-win32/bin/../lib/gcc/arm-none-eabi/4.7.4/../../../../arm-none-eabi/lib/armv7e-m/fpu\libm.a(lib_a-w_pow.o)
                0x0800a7a8                pow
 .text.logf     0x0800ab10       0xf4 c:/coocox/gcc-arm-none-eabi-4_7-2013q3-20130916-win32/bin/../lib/gcc/arm-none-eabi/4.7.4/../../../../arm-none-eabi/lib/armv7e-m/fpu\libm.a(lib_a-wf_log.o)
                0x0800ab10                logf
 .text.powf     0x0800ac04      0x380 c:/coocox/gcc-arm-none-eabi-4_7-2013q3-20130916-win32/bin/../lib/gcc/arm-none-eabi/4.7.4/../../../../arm-none-eabi/lib/armv7e-m/fpu\libm.a(lib_a-wf_pow.o)
                0x0800ac04                powf
 *fill*         0x0800af84        0x4 00
 .text.__ieee754_log10
                0x0800af88      0x138 c:/coocox/gcc-arm-none-eabi-4_7-2013q3-20130916-win32/bin/../lib/gcc/arm-none-eabi/4.7.4/../../../../arm-none-eabi/lib/armv7e-m/fpu\libm.a(lib_a-e_log10.o)
                0x0800af88                __ieee754_log10
 .text.__ieee754_pow
                0x0800b0c0      0xb50 c:/coocox/gcc-arm-none-eabi-4_7-2013q3-20130916-win32/bin/../lib/gcc/arm-none-eabi/4.7.4/../../../../arm-none-eabi/lib/armv7e-m/fpu\libm.a(lib_a-e_pow.o)
                0x0800b0c0                __ieee754_pow
 .text.__ieee754_sqrt
                0x0800bc10      0x218 c:/coocox/gcc-arm-none-eabi-4_7-2013q3-20130916-win32/bin/../lib/gcc/arm-none-eabi/4.7.4/../../../../arm-none-eabi/lib/armv7e-m/fpu\libm.a(lib_a-e_sqrt.o)
                0x0800bc10                __ieee754_sqrt
 .text.__ieee754_logf
                0x0800be28      0x200 c:/coocox/gcc-arm-none-eabi-4_7-2013q3-20130916-win32/bin/../lib/gcc/arm-none-eabi/4.7.4/../../../../arm-none-eabi/lib/armv7e-m/fpu\libm.a(lib_a-ef_log.o)
                0x0800be28                __ieee754_logf
 .text.__ieee754_powf
                0x0800c028      0x5e0 c:/coocox/gcc-arm-none-eabi-4_7-2013q3-20130916-win32/bin/../lib/gcc/arm-none-eabi/4.7.4/../../../../arm-none-eabi/lib/armv7e-m/fpu\libm.a(lib_a-ef_pow.o)
                0x0800c028                __ieee754_powf
 .text.__ieee754_sqrtf
                0x0800c608       0xc4 c:/coocox/gcc-arm-none-eabi-4_7-2013q3-20130916-win32/bin/../lib/gcc/arm-none-eabi/4.7.4/../../../../arm-none-eabi/lib/armv7e-m/fpu\libm.a(lib_a-ef_sqrt.o)
                0x0800c608                __ieee754_sqrtf
 .text.fabs     0x0800c6cc       0x14 c:/coocox/gcc-arm-none-eabi-4_7-2013q3-20130916-win32/bin/../lib/gcc/arm-none-eabi/4.7.4/../../../../arm-none-eabi/lib/armv7e-m/fpu\libm.a(lib_a-s_fabs.o)
                0x0800c6cc                fabs
 .text.finite   0x0800c6e0       0x10 c:/coocox/gcc-arm-none-eabi-4_7-2013q3-20130916-win32/bin/../lib/gcc/arm-none-eabi/4.7.4/../../../../arm-none-eabi/lib/armv7e-m/fpu\libm.a(lib_a-s_finite.o)
                0x0800c6e0                finite
 .text.__fpclassifyd
                0x0800c6f0       0x70 c:/coocox/gcc-arm-none-eabi-4_7-2013q3-20130916-win32/bin/../lib/gcc/arm-none-eabi/4.7.4/../../../../arm-none-eabi/lib/armv7e-m/fpu\libm.a(lib_a-s_fpclassify.o)
                0x0800c6f0                __fpclassifyd
 .text.matherr  0x0800c760        0x4 c:/coocox/gcc-arm-none-eabi-4_7-2013q3-20130916-win32/bin/../lib/gcc/arm-none-eabi/4.7.4/../../../../arm-none-eabi/lib/armv7e-m/fpu\libm.a(lib_a-s_matherr.o)
                0x0800c760                matherr
 *fill*         0x0800c764        0x4 00
 .text.nan      0x0800c768       0x10 c:/coocox/gcc-arm-none-eabi-4_7-2013q3-20130916-win32/bin/../lib/gcc/arm-none-eabi/4.7.4/../../../../arm-none-eabi/lib/armv7e-m/fpu\libm.a(lib_a-s_nan.o)
                0x0800c768                nan
 .text.rint     0x0800c778      0x120 c:/coocox/gcc-arm-none-eabi-4_7-2013q3-20130916-win32/bin/../lib/gcc/arm-none-eabi/4.7.4/../../../../arm-none-eabi/lib/armv7e-m/fpu\libm.a(lib_a-s_rint.o)
                0x0800c778                rint
 .text.scalbn   0x0800c898      0x120 c:/coocox/gcc-arm-none-eabi-4_7-2013q3-20130916-win32/bin/../lib/gcc/arm-none-eabi/4.7.4/../../../../arm-none-eabi/lib/armv7e-m/fpu\libm.a(lib_a-s_scalbn.o)
                0x0800c898                scalbn
 .text.fabsf    0x0800c9b8       0x10 c:/coocox/gcc-arm-none-eabi-4_7-2013q3-20130916-win32/bin/../lib/gcc/arm-none-eabi/4.7.4/../../../../arm-none-eabi/lib/armv7e-m/fpu\libm.a(lib_a-sf_fabs.o)
                0x0800c9b8                fabsf
 .text.finitef  0x0800c9c8       0x14 c:/coocox/gcc-arm-none-eabi-4_7-2013q3-20130916-win32/bin/../lib/gcc/arm-none-eabi/4.7.4/../../../../arm-none-eabi/lib/armv7e-m/fpu\libm.a(lib_a-sf_finite.o)
                0x0800c9c8                finitef
 .text.__fpclassifyf
                0x0800c9dc       0x5c c:/coocox/gcc-arm-none-eabi-4_7-2013q3-20130916-win32/bin/../lib/gcc/arm-none-eabi/4.7.4/../../../../arm-none-eabi/lib/armv7e-m/fpu\libm.a(lib_a-sf_fpclassify.o)
                0x0800c9dc                __fpclassifyf
 .text.nanf     0x0800ca38        0xc c:/coocox/gcc-arm-none-eabi-4_7-2013q3-20130916-win32/bin/../lib/gcc/arm-none-eabi/4.7.4/../../../../arm-none-eabi/lib/armv7e-m/fpu\libm.a(lib_a-sf_nan.o)
                0x0800ca38                nanf
 .text.scalbnf  0x0800ca44       0xcc c:/coocox/gcc-arm-none-eabi-4_7-2013q3-20130916-win32/bin/../lib/gcc/arm-none-eabi/4.7.4/../../../../arm-none-eabi/lib/armv7e-m/fpu\libm.a(lib_a-sf_scalbn.o)
                0x0800ca44                scalbnf
 .text.__ieee754_log
                0x0800cb10      0x418 c:/coocox/gcc-arm-none-eabi-4_7-2013q3-20130916-win32/bin/../lib/gcc/arm-none-eabi/4.7.4/../../../../arm-none-eabi/lib/armv7e-m/fpu\libm.a(lib_a-e_log.o)
                0x0800cb10                __ieee754_log
 .text.copysign
                0x0800cf28       0x24 c:/coocox/gcc-arm-none-eabi-4_7-2013q3-20130916-win32/bin/../lib/gcc/arm-none-eabi/4.7.4/../../../../arm-none-eabi/lib/armv7e-m/fpu\libm.a(lib_a-s_copysign.o)
                0x0800cf28                copysign
 .text.copysignf
                0x0800cf4c       0x1c c:/coocox/gcc-arm-none-eabi-4_7-2013q3-20130916-win32/bin/../lib/gcc/arm-none-eabi/4.7.4/../../../../arm-none-eabi/lib/armv7e-m/fpu\libm.a(lib_a-sf_copysign.o)
                0x0800cf4c                copysignf
 .text          0x0800cf68      0x370 c:/coocox/gcc-arm-none-eabi-4_7-2013q3-20130916-win32/bin/../lib/gcc/arm-none-eabi/4.7.4/armv7e-m/fpu\libgcc.a(_arm_addsubdf3.o)
                0x0800cf68                __aeabi_drsub
                0x0800cf70                __aeabi_dsub
                0x0800cf70                __subdf3
                0x0800cf74                __aeabi_dadd
                0x0800cf74                __adddf3
                0x0800d1ec                __floatunsidf
                0x0800d1ec                __aeabi_ui2d
                0x0800d20c                __floatsidf
                0x0800d20c                __aeabi_i2d
                0x0800d230                __aeabi_f2d
                0x0800d230                __extendsfdf2
                0x0800d26c                __floatundidf
                0x0800d26c                __aeabi_ul2d
                0x0800d27c                __floatdidf
                0x0800d27c                __aeabi_l2d
 .text          0x0800d2d8      0x424 c:/coocox/gcc-arm-none-eabi-4_7-2013q3-20130916-win32/bin/../lib/gcc/arm-none-eabi/4.7.4/armv7e-m/fpu\libgcc.a(_arm_muldivdf3.o)
                0x0800d2d8                __aeabi_dmul
                0x0800d2d8                __muldf3
                0x0800d52c                __divdf3
                0x0800d52c                __aeabi_ddiv
 .text          0x0800d6fc      0x110 c:/coocox/gcc-arm-none-eabi-4_7-2013q3-20130916-win32/bin/../lib/gcc/arm-none-eabi/4.7.4/armv7e-m/fpu\libgcc.a(_arm_cmpdf2.o)
                0x0800d6fc                __gtdf2
                0x0800d6fc                __gedf2
                0x0800d704                __ltdf2
                0x0800d704                __ledf2
                0x0800d70c                __nedf2
                0x0800d70c                __eqdf2
                0x0800d70c                __cmpdf2
                0x0800d788                __aeabi_cdrcmple
                0x0800d798                __aeabi_cdcmpeq
                0x0800d798                __aeabi_cdcmple
                0x0800d7a8                __aeabi_dcmpeq
                0x0800d7bc                __aeabi_dcmplt
                0x0800d7d0                __aeabi_dcmple
                0x0800d7e4                __aeabi_dcmpge
                0x0800d7f8                __aeabi_dcmpgt
 .text          0x0800d80c       0x50 c:/coocox/gcc-arm-none-eabi-4_7-2013q3-20130916-win32/bin/../lib/gcc/arm-none-eabi/4.7.4/armv7e-m/fpu\libgcc.a(_arm_fixdfsi.o)
                0x0800d80c                __aeabi_d2iz
                0x0800d80c                __fixdfsi
 .text          0x0800d85c       0x40 c:/coocox/gcc-arm-none-eabi-4_7-2013q3-20130916-win32/bin/../lib/gcc/arm-none-eabi/4.7.4/armv7e-m/fpu\libgcc.a(_arm_fixunsdfsi.o)
                0x0800d85c                __aeabi_d2uiz
                0x0800d85c                __fixunsdfsi
 .text          0x0800d89c       0xa0 c:/coocox/gcc-arm-none-eabi-4_7-2013q3-20130916-win32/bin/../lib/gcc/arm-none-eabi/4.7.4/armv7e-m/fpu\libgcc.a(_arm_truncdfsf2.o)
                0x0800d89c                __truncdfsf2
                0x0800d89c                __aeabi_d2f
 .text.__errno  0x0800d93c        0xc c:/coocox/gcc-arm-none-eabi-4_7-2013q3-20130916-win32/bin/../lib/gcc/arm-none-eabi/4.7.4/../../../../arm-none-eabi/lib/armv7e-m/fpu\libg.a(lib_a-errno.o)
                0x0800d93c                __errno
 .text.memcpy   0x0800d948      0x144 c:/coocox/gcc-arm-none-eabi-4_7-2013q3-20130916-win32/bin/../lib/gcc/arm-none-eabi/4.7.4/../../../../arm-none-eabi/lib/armv7e-m/fpu\libg.a(lib_a-memcpy.o)
                0x0800d948                memcpy
 .text.strcat   0x0800da8c       0x4c c:/coocox/gcc-arm-none-eabi-4_7-2013q3-20130916-win32/bin/../lib/gcc/arm-none-eabi/4.7.4/../../../../arm-none-eabi/lib/armv7e-m/fpu\libg.a(lib_a-strcat.o)
                0x0800da8c                strcat
 .text.strchr   0x0800dad8       0xfc c:/coocox/gcc-arm-none-eabi-4_7-2013q3-20130916-win32/bin/../lib/gcc/arm-none-eabi/4.7.4/../../../../arm-none-eabi/lib/armv7e-m/fpu\libg.a(lib_a-strchr.o)
                0x0800dad8                strchr
 .text.strcmp   0x0800dbd4       0x80 c:/coocox/gcc-arm-none-eabi-4_7-2013q3-20130916-win32/bin/../lib/gcc/arm-none-eabi/4.7.4/../../../../arm-none-eabi/lib/armv7e-m/fpu\libg.a(lib_a-strcmp.o)
                0x0800dbd4                strcmp
 .text.strcmp_unaligned
                0x0800dc54      0x15c c:/coocox/gcc-arm-none-eabi-4_7-2013q3-20130916-win32/bin/../lib/gcc/arm-none-eabi/4.7.4/../../../../arm-none-eabi/lib/armv7e-m/fpu\libg.a(lib_a-strcmp.o)
 .text.strcpy   0x0800ddb0       0xbc c:/coocox/gcc-arm-none-eabi-4_7-2013q3-20130916-win32/bin/../lib/gcc/arm-none-eabi/4.7.4/../../../../arm-none-eabi/lib/armv7e-m/fpu\libg.a(lib_a-strcpy.o)
                0x0800ddb0                strcpy
 .text.strlen   0x0800de6c       0x60 c:/coocox/gcc-arm-none-eabi-4_7-2013q3-20130916-win32/bin/../lib/gcc/arm-none-eabi/4.7.4/../../../../arm-none-eabi/lib/armv7e-m/fpu\libg.a(lib_a-strlen.o)
                0x0800de6c                strlen
 .text.strtok   0x0800decc       0x14 c:/coocox/gcc-arm-none-eabi-4_7-2013q3-20130916-win32/bin/../lib/gcc/arm-none-eabi/4.7.4/../../../../arm-none-eabi/lib/armv7e-m/fpu\libg.a(lib_a-strtok.o)
                0x0800decc                strtok
 .text.__strtok_r
                0x0800dee0       0x60 c:/coocox/gcc-arm-none-eabi-4_7-2013q3-20130916-win32/bin/../lib/gcc/arm-none-eabi/4.7.4/../../../../arm-none-eabi/lib/armv7e-m/fpu\libg.a(lib_a-strtok_r.o)
                0x0800dee0                __strtok_r
 .text.strupr   0x0800df40       0x30 c:/coocox/gcc-arm-none-eabi-4_7-2013q3-20130916-win32/bin/../lib/gcc/arm-none-eabi/4.7.4/../../../../arm-none-eabi/lib/armv7e-m/fpu\libg.a(lib_a-strupr.o)
                0x0800df40                strupr
 *(.init)
 *(.fini)
 *crtbegin.o(.ctors)
 *crtbegin?.o(.ctors)
 *(EXCLUDE_FILE(*crtend.o *crtend?.o) .ctors)
 *(SORT(.ctors.*))
 *(.ctors)
 *crtbegin.o(.dtors)
 *crtbegin?.o(.dtors)
 *(EXCLUDE_FILE(*crtend.o *crtend?.o) .dtors)
 *(SORT(.dtors.*))
 *(.dtors)
 *(.rodata*)
 .rodata        0x0800df70        0x4 ..\obj\MS5607.o
 .rodata        0x0800df74        0x4 ..\obj\HTU21D.o
 .rodata        0x0800df78        0x4 ..\obj\EE03.o
 .rodata        0x0800df7c       0x20 ..\obj\Main.o
 .rodata        0x0800df9c       0x10 ..\obj\utilities.o
 .rodata        0x0800dfac        0x4 ..\obj\thermistor.o
 .rodata        0x0800dfb0        0x4 ..\obj\pt100.o
 .rodata        0x0800dfb4        0xc ..\obj\UBlox.o
 .rodata        0x0800dfc0        0x4 ..\obj\MLX90614.o
 .rodata        0x0800dfc4        0x8 ..\obj\chemical.o
 .rodata        0x0800dfcc      0x16c ..\obj\comms.o
 .rodata.str1.4
                0x0800e138        0x6 c:/coocox/gcc-arm-none-eabi-4_7-2013q3-20130916-win32/bin/../lib/gcc/arm-none-eabi/4.7.4/../../../../arm-none-eabi/lib/armv7e-m/fpu\libm.a(lib_a-w_log10.o)
                                  0xc (size before relaxing)
 *fill*         0x0800e13e        0x2 00
 .rodata.str1.4
                0x0800e140        0x4 c:/coocox/gcc-arm-none-eabi-4_7-2013q3-20130916-win32/bin/../lib/gcc/arm-none-eabi/4.7.4/../../../../arm-none-eabi/lib/armv7e-m/fpu\libm.a(lib_a-w_pow.o)
 .rodata.str1.4
                0x0800e144        0x5 c:/coocox/gcc-arm-none-eabi-4_7-2013q3-20130916-win32/bin/../lib/gcc/arm-none-eabi/4.7.4/../../../../arm-none-eabi/lib/armv7e-m/fpu\libm.a(lib_a-wf_log.o)
                                  0xc (size before relaxing)
 *fill*         0x0800e149        0x3 00
 .rodata.str1.4
                0x0800e14c        0x5 c:/coocox/gcc-arm-none-eabi-4_7-2013q3-20130916-win32/bin/../lib/gcc/arm-none-eabi/4.7.4/../../../../arm-none-eabi/lib/armv7e-m/fpu\libm.a(lib_a-wf_pow.o)
                                  0x8 (size before relaxing)
 *fill*         0x0800e151        0x7 00
 .rodata.dp_h   0x0800e158       0x10 c:/coocox/gcc-arm-none-eabi-4_7-2013q3-20130916-win32/bin/../lib/gcc/arm-none-eabi/4.7.4/../../../../arm-none-eabi/lib/armv7e-m/fpu\libm.a(lib_a-e_pow.o)
 .rodata.dp_l   0x0800e168       0x10 c:/coocox/gcc-arm-none-eabi-4_7-2013q3-20130916-win32/bin/../lib/gcc/arm-none-eabi/4.7.4/../../../../arm-none-eabi/lib/armv7e-m/fpu\libm.a(lib_a-e_pow.o)
 .rodata.bp     0x0800e178       0x10 c:/coocox/gcc-arm-none-eabi-4_7-2013q3-20130916-win32/bin/../lib/gcc/arm-none-eabi/4.7.4/../../../../arm-none-eabi/lib/armv7e-m/fpu\libm.a(lib_a-e_pow.o)
 .rodata.str1.4
                0x00000000        0x4 c:/coocox/gcc-arm-none-eabi-4_7-2013q3-20130916-win32/bin/../lib/gcc/arm-none-eabi/4.7.4/../../../../arm-none-eabi/lib/armv7e-m/fpu\libm.a(lib_a-e_pow.o)
 .rodata.dp_h   0x0800e188        0x8 c:/coocox/gcc-arm-none-eabi-4_7-2013q3-20130916-win32/bin/../lib/gcc/arm-none-eabi/4.7.4/../../../../arm-none-eabi/lib/armv7e-m/fpu\libm.a(lib_a-ef_pow.o)
 .rodata.dp_l   0x0800e190        0x8 c:/coocox/gcc-arm-none-eabi-4_7-2013q3-20130916-win32/bin/../lib/gcc/arm-none-eabi/4.7.4/../../../../arm-none-eabi/lib/armv7e-m/fpu\libm.a(lib_a-ef_pow.o)
 .rodata.bp     0x0800e198        0x8 c:/coocox/gcc-arm-none-eabi-4_7-2013q3-20130916-win32/bin/../lib/gcc/arm-none-eabi/4.7.4/../../../../arm-none-eabi/lib/armv7e-m/fpu\libm.a(lib_a-ef_pow.o)
 .rodata.str1.4
                0x00000000        0x4 c:/coocox/gcc-arm-none-eabi-4_7-2013q3-20130916-win32/bin/../lib/gcc/arm-none-eabi/4.7.4/../../../../arm-none-eabi/lib/armv7e-m/fpu\libm.a(lib_a-ef_pow.o)
 .rodata.TWO52  0x0800e1a0       0x10 c:/coocox/gcc-arm-none-eabi-4_7-2013q3-20130916-win32/bin/../lib/gcc/arm-none-eabi/4.7.4/../../../../arm-none-eabi/lib/armv7e-m/fpu\libm.a(lib_a-s_rint.o)
 .rodata.str1.4
                0x0800e1b0        0x4 c:/coocox/gcc-arm-none-eabi-4_7-2013q3-20130916-win32/bin/../lib/gcc/arm-none-eabi/4.7.4/../../../../arm-none-eabi/lib/armv7e-m/fpu\libg.a(lib_a-impure.o)
 .rodata._ctype_
                0x0800e1b4      0x104 c:/coocox/gcc-arm-none-eabi-4_7-2013q3-20130916-win32/bin/../lib/gcc/arm-none-eabi/4.7.4/../../../../arm-none-eabi/lib/armv7e-m/fpu\libg.a(lib_a-ctype_.o)
                0x0800e1b4                _ctype_
 *(.eh_fram e*)

.glue_7         0x0800e2b8        0x0
 .glue_7        0x00000000        0x0 linker stubs

.glue_7t        0x0800e2b8        0x0
 .glue_7t       0x00000000        0x0 linker stubs

.vfp11_veneer   0x0800e2b8        0x0
 .vfp11_veneer  0x00000000        0x0 linker stubs

.v4_bx          0x0800e2b8        0x0
 .v4_bx         0x00000000        0x0 linker stubs

.iplt           0x0800e2b8        0x0
 .iplt          0x00000000        0x0 ..\obj\stm32f37x_dbgmcu.o

.rel.dyn        0x0800e2b8        0x0
 .rel.iplt      0x00000000        0x0 ..\obj\stm32f37x_dbgmcu.o

.ARM.extab
 *(.ARM.extab* .gnu.linkonce.armextab.*)
                0x0800e2b8                __exidx_start = .

.ARM.exidx
 *(.ARM.exidx* .gnu.linkonce.armexidx.*)
                0x0800e2b8                __exidx_end = .
                0x0800e2b8                __etext = .
                0x0800e2b8                _sidata = __etext

.data           0x20000000      0x470 load address 0x0800e2b8
                0x20000000                __data_start__ = .
                0x20000000                _sdata = __data_start__
 *(vtable)
 *(.data*)
 .data          0x20000000        0x4 ..\obj\ADS1115.o
                0x20000000                ADS_DefaultConfig
 .data          0x20000004       0x14 ..\obj\system_stm32f37x.o
                0x20000004                SystemCoreClock
                0x20000008                AHBPrescTable
 .data          0x20000018       0x24 ..\obj\stm32f37x_rcc.o
 .data.__fdlib_version
                0x2000003c        0x1 c:/coocox/gcc-arm-none-eabi-4_7-2013q3-20130916-win32/bin/../lib/gcc/arm-none-eabi/4.7.4/../../../../arm-none-eabi/lib/armv7e-m/fpu\libm.a(lib_a-s_lib_ver.o)
                0x2000003c                __fdlib_version
 *fill*         0x2000003d        0x3 00
 .data.impure_data
                0x20000040      0x428 c:/coocox/gcc-arm-none-eabi-4_7-2013q3-20130916-win32/bin/../lib/gcc/arm-none-eabi/4.7.4/../../../../arm-none-eabi/lib/armv7e-m/fpu\libg.a(lib_a-impure.o)
 .data._impure_ptr
                0x20000468        0x4 c:/coocox/gcc-arm-none-eabi-4_7-2013q3-20130916-win32/bin/../lib/gcc/arm-none-eabi/4.7.4/../../../../arm-none-eabi/lib/armv7e-m/fpu\libg.a(lib_a-impure.o)
                0x20000468                _impure_ptr
 .data.__ctype_ptr__
                0x2000046c        0x4 c:/coocox/gcc-arm-none-eabi-4_7-2013q3-20130916-win32/bin/../lib/gcc/arm-none-eabi/4.7.4/../../../../arm-none-eabi/lib/armv7e-m/fpu\libg.a(lib_a-ctype_.o)
                0x2000046c                __ctype_ptr__
                0x20000470                . = ALIGN (0x4)
                0x20000470                PROVIDE (__preinit_array_start, .)
 *(.preinit_array)
                0x20000470                PROVIDE (__preinit_array_end, .)
                0x20000470                . = ALIGN (0x4)
                0x20000470                PROVIDE (__init_array_start, .)
 *(SORT(.init_array.*))
 *(.init_array)
                0x20000470                PROVIDE (__init_array_end, .)
                0x20000470                . = ALIGN (0x4)
                0x20000470                PROVIDE (__fini_array_start, .)
 *(SORT(.fini_array.*))
 *(.fini_array)
                0x20000470                PROVIDE (__fini_array_end, .)
 *(.jcr*)
                0x20000470                . = ALIGN (0x4)
                0x20000470                __data_end__ = .
                0x20000470                _edata = __data_end__

.igot.plt       0x20000470        0x0 load address 0x0800e728
 .igot.plt      0x00000000        0x0 ..\obj\stm32f37x_dbgmcu.o

.bss            0x20000470      0xbd0 load address 0x0800e728
                0x20000470                . = ALIGN (0x4)
                0x20000470                __bss_start__ = .
                0x20000470                _sbss = __bss_start__
 *(.bss*)
 .bss           0x20000470        0x8 ..\obj\thermistor.o
 .bss           0x20000478        0x4 ..\obj\pt100.o
 .bss           0x2000047c       0x34 ..\obj\peripherals.o
                0x2000047c                Wait_Tics
 .bss           0x200004b0        0x8 ..\obj\chemical.o
 *(COMMON)
 COMMON         0x200004b8      0x82f ..\obj\MS5607.o
                0x200004b8                External_MLX90614
                0x200004dc                External_NTCA
                0x20000570                External_NTCD
                0x20000604                External_CH4_D
                0x20000644                External_CH4_A
                0x20000684                Internal_HTU21D
                0x200006b4                External_PT100B
                0x200006f8                External_CO_C
                0x20000738                External_NTCC
                0x200007cc                External_EE03
                0x200007fc                External_CH4_C
                0x2000083c                External_CO_D
                0x2000087c                External_CH4_B
                0x200008bc                TxProtocol
                0x200008c0                External_NTCB
                0x20000954                External_PT100A
                0x20000998                External_HTU21D
                0x200009c8                External_CO_A
                0x20000a08                External_CO_B
                0x20000a48                Comms_Tx
                0x20000b78                Internal_MS5607
                0x20000bb8                Comms_Rx
 *fill*         0x20000ce7        0x1 00
 COMMON         0x20000ce8      0x12c ..\obj\Main.o
                0x20000ce8                Message
 COMMON         0x20000e14       0xa0 ..\obj\config.o
                0x20000e14                iMetX_Default
                0x20000e64                iMetX_Config
 COMMON         0x20000eb4       0x30 ..\obj\ADS1115.o
                0x20000eb4                ADS1115_4
                0x20000ec0                ADS1115_1
                0x20000ecc                ADS1115_3
                0x20000ed8                ADS1115_2
 COMMON         0x20000ee4      0x128 ..\obj\UBlox.o
                0x20000ee4                External_UBlox
 COMMON         0x2000100c       0x28 ..\obj\HYT271.o
                0x2000100c                External_HYT271_A
                0x20001020                External_HYT271_B
 COMMON         0x20001034        0x2 ..\obj\peripherals.o
                0x20001034                Blue_LED_State
                0x20001035                Flag_DRR
 *fill*         0x20001036        0x2 00
 COMMON         0x20001038        0x5 ..\obj\comms.o
                0x20001038                ptrMessage
                0x2000103c                CommandType
                0x20001040                . = ALIGN (0x4)
 *fill*         0x2000103d        0x3 00
                0x20001040                __bss_end__ = .
                0x20001040                _ebss = __bss_end__

.heap           0x20001040        0x0
                0x20001040                __end__ = .
                0x20001040                _end = __end__
                0x20001040                end = __end__
 *(.heap*)
                0x20001040                __HeapLimit = .

.co_stack       0x20001040        0x0
                0x20001040                . = ALIGN (0x8)
 *(.co_stack .co_stack.*)
                0x20008000                __StackTop = (ORIGIN (ram) + 0x8000)
                0x20008000                __StackLimit = (__StackTop - SIZEOF (.co_stack))
                0x20008000                PROVIDE (__stack, __StackTop)
                0x00000001                ASSERT ((__StackLimit >= __HeapLimit), region ram  overflowed with stack)
LOAD ..\obj\stm32f37x_dbgmcu.o
LOAD ..\obj\stm32f37x_misc.o
LOAD ..\obj\MS5607.o
LOAD ..\obj\stm32f37x_spi.o
LOAD ..\obj\HTU21D.o
LOAD ..\obj\stm32f37x_i2c.o
LOAD ..\obj\EE03.o
LOAD ..\obj\stm32f37x_rtc.o
LOAD ..\obj\Main.o
LOAD ..\obj\config.o
LOAD ..\obj\startup_stm32f37x.o
LOAD ..\obj\stm32f37x_tim.o
LOAD ..\obj\utilities.o
LOAD ..\obj\stm32f37x_wwdg.o
LOAD ..\obj\stm32f37x_sdadc.o
LOAD ..\obj\thermistor.o
LOAD ..\obj\ADS1115.o
LOAD ..\obj\stm32f37x_iwdg.o
LOAD ..\obj\stm32f37x_syscfg.o
LOAD ..\obj\stm32f37x_pwr.o
LOAD ..\obj\stm32f37x_can.o
LOAD ..\obj\stm32f37x_dac.o
LOAD ..\obj\pt100.o
LOAD ..\obj\stm32f37x_usart.o
LOAD ..\obj\UBlox.o
LOAD ..\obj\stm32f37x_crc.o
LOAD ..\obj\system_stm32f37x.o
LOAD ..\obj\HYT271.o
LOAD ..\obj\stm32f37x_rcc.o
LOAD ..\obj\peripherals.o
LOAD ..\obj\syscalls.o
LOAD ..\obj\stm32f37x_comp.o
LOAD ..\obj\stm32f37x_gpio.o
LOAD ..\obj\MLX90614.o
LOAD ..\obj\chemical.o
LOAD ..\obj\stm32f37x_adc.o
LOAD ..\obj\stm32f37x_cec.o
LOAD ..\obj\stm32f37x_exti.o
LOAD ..\obj\stm32f37x_dma.o
LOAD ..\obj\comms.o
LOAD ..\obj\stm32f37x_flash.o
LOAD c:/coocox/gcc-arm-none-eabi-4_7-2013q3-20130916-win32/bin/../lib/gcc/arm-none-eabi/4.7.4/../../../../arm-none-eabi/lib/armv7e-m/fpu\libm.a
START GROUP
LOAD c:/coocox/gcc-arm-none-eabi-4_7-2013q3-20130916-win32/bin/../lib/gcc/arm-none-eabi/4.7.4/armv7e-m/fpu\libgcc.a
LOAD c:/coocox/gcc-arm-none-eabi-4_7-2013q3-20130916-win32/bin/../lib/gcc/arm-none-eabi/4.7.4/../../../../arm-none-eabi/lib/armv7e-m/fpu\libg.a
LOAD c:/coocox/gcc-arm-none-eabi-4_7-2013q3-20130916-win32/bin/../lib/gcc/arm-none-eabi/4.7.4/../../../../arm-none-eabi/lib/armv7e-m/fpu\libc.a
END GROUP
OUTPUT(iMet-XF.elf elf32-littlearm)

.debug_info     0x00000000    0x153c1
 .debug_info    0x00000000      0x592 ..\obj\stm32f37x_misc.o
 .debug_info    0x00000592      0xe50 ..\obj\MS5607.o
 .debug_info    0x000013e2      0xdf5 ..\obj\HTU21D.o
 .debug_info    0x000021d7      0xcae ..\obj\stm32f37x_i2c.o
 .debug_info    0x00002e85      0xcfe ..\obj\EE03.o
 .debug_info    0x00003b83      0xef3 ..\obj\Main.o
 .debug_info    0x00004a76      0xd50 ..\obj\config.o
 .debug_info    0x000057c6       0xa9 ..\obj\startup_stm32f37x.o
 .debug_info    0x0000586f     0x1e25 ..\obj\stm32f37x_tim.o
 .debug_info    0x00007694      0xf78 ..\obj\utilities.o
 .debug_info    0x0000860c      0x257 ..\obj\stm32f37x_wwdg.o
 .debug_info    0x00008863      0xd6f ..\obj\thermistor.o
 .debug_info    0x000095d2      0xf12 ..\obj\ADS1115.o
 .debug_info    0x0000a4e4      0x555 ..\obj\stm32f37x_pwr.o
 .debug_info    0x0000aa39      0xc51 ..\obj\pt100.o
 .debug_info    0x0000b68a      0xfb3 ..\obj\stm32f37x_usart.o
 .debug_info    0x0000c63d     0x111c ..\obj\UBlox.o
 .debug_info    0x0000d759      0x3be ..\obj\stm32f37x_crc.o
 .debug_info    0x0000db17      0x4d9 ..\obj\system_stm32f37x.o
 .debug_info    0x0000dff0      0xd60 ..\obj\HYT271.o
 .debug_info    0x0000ed50      0xb27 ..\obj\stm32f37x_rcc.o
 .debug_info    0x0000f877     0x17da ..\obj\peripherals.o
 .debug_info    0x00011051      0x63b ..\obj\stm32f37x_gpio.o
 .debug_info    0x0001168c      0xcc5 ..\obj\MLX90614.o
 .debug_info    0x00012351      0xc7e ..\obj\chemical.o
 .debug_info    0x00012fcf     0x1b3e ..\obj\comms.o
 .debug_info    0x00014b0d      0x8b4 ..\obj\stm32f37x_flash.o

.debug_abbrev   0x00000000     0x2c29
 .debug_abbrev  0x00000000      0x129 ..\obj\stm32f37x_misc.o
 .debug_abbrev  0x00000129      0x1de ..\obj\MS5607.o
 .debug_abbrev  0x00000307      0x1a1 ..\obj\HTU21D.o
 .debug_abbrev  0x000004a8      0x180 ..\obj\stm32f37x_i2c.o
 .debug_abbrev  0x00000628      0x1aa ..\obj\EE03.o
 .debug_abbrev  0x000007d2      0x1a0 ..\obj\Main.o
 .debug_abbrev  0x00000972      0x199 ..\obj\config.o
 .debug_abbrev  0x00000b0b       0x12 ..\obj\startup_stm32f37x.o
 .debug_abbrev  0x00000b1d      0x189 ..\obj\stm32f37x_tim.o
 .debug_abbrev  0x00000ca6      0x243 ..\obj\utilities.o
 .debug_abbrev  0x00000ee9      0x142 ..\obj\stm32f37x_wwdg.o
 .debug_abbrev  0x0000102b      0x192 ..\obj\thermistor.o
 .debug_abbrev  0x000011bd      0x216 ..\obj\ADS1115.o
 .debug_abbrev  0x000013d3      0x181 ..\obj\stm32f37x_pwr.o
 .debug_abbrev  0x00001554      0x172 ..\obj\pt100.o
 .debug_abbrev  0x000016c6      0x157 ..\obj\stm32f37x_usart.o
 .debug_abbrev  0x0000181d      0x246 ..\obj\UBlox.o
 .debug_abbrev  0x00001a63      0x180 ..\obj\stm32f37x_crc.o
 .debug_abbrev  0x00001be3      0x147 ..\obj\system_stm32f37x.o
 .debug_abbrev  0x00001d2a      0x1aa ..\obj\HYT271.o
 .debug_abbrev  0x00001ed4      0x1e5 ..\obj\stm32f37x_rcc.o
 .debug_abbrev  0x000020b9      0x2aa ..\obj\peripherals.o
 .debug_abbrev  0x00002363      0x196 ..\obj\stm32f37x_gpio.o
 .debug_abbrev  0x000024f9      0x1b9 ..\obj\MLX90614.o
 .debug_abbrev  0x000026b2      0x181 ..\obj\chemical.o
 .debug_abbrev  0x00002833      0x242 ..\obj\comms.o
 .debug_abbrev  0x00002a75      0x1b4 ..\obj\stm32f37x_flash.o

.debug_loc      0x00000000     0x5c80
 .debug_loc     0x00000000      0x118 ..\obj\stm32f37x_misc.o
 .debug_loc     0x00000118      0x1fa ..\obj\MS5607.o
 .debug_loc     0x00000312      0x230 ..\obj\HTU21D.o
 .debug_loc     0x00000542      0x930 ..\obj\stm32f37x_i2c.o
 .debug_loc     0x00000e72      0x118 ..\obj\EE03.o
 .debug_loc     0x00000f8a       0xbc ..\obj\Main.o
 .debug_loc     0x00001046       0xa0 ..\obj\config.o
 .debug_loc     0x000010e6     0x13e8 ..\obj\stm32f37x_tim.o
 .debug_loc     0x000024ce      0x25c ..\obj\utilities.o
 .debug_loc     0x0000272a      0x19c ..\obj\stm32f37x_wwdg.o
 .debug_loc     0x000028c6       0xec ..\obj\thermistor.o
 .debug_loc     0x000029b2      0x1ec ..\obj\ADS1115.o
 .debug_loc     0x00002b9e      0x250 ..\obj\stm32f37x_pwr.o
 .debug_loc     0x00002dee       0xe0 ..\obj\pt100.o
 .debug_loc     0x00002ece      0xaba ..\obj\stm32f37x_usart.o
 .debug_loc     0x00003988      0x2a0 ..\obj\UBlox.o
 .debug_loc     0x00003c28      0x2e0 ..\obj\stm32f37x_crc.o
 .debug_loc     0x00003f08       0x9c ..\obj\system_stm32f37x.o
 .debug_loc     0x00003fa4      0x118 ..\obj\HYT271.o
 .debug_loc     0x000040bc      0x864 ..\obj\stm32f37x_rcc.o
 .debug_loc     0x00004920      0x49c ..\obj\peripherals.o
 .debug_loc     0x00004dbc      0x2d8 ..\obj\stm32f37x_gpio.o
 .debug_loc     0x00005094      0x118 ..\obj\MLX90614.o
 .debug_loc     0x000051ac       0xe0 ..\obj\chemical.o
 .debug_loc     0x0000528c      0x3b8 ..\obj\comms.o
 .debug_loc     0x00005644      0x63c ..\obj\stm32f37x_flash.o

.debug_aranges  0x00000000     0x1010
 .debug_aranges
                0x00000000       0x40 ..\obj\stm32f37x_misc.o
 .debug_aranges
                0x00000040       0x60 ..\obj\MS5607.o
 .debug_aranges
                0x000000a0       0x68 ..\obj\HTU21D.o
 .debug_aranges
                0x00000108      0x168 ..\obj\stm32f37x_i2c.o
 .debug_aranges
                0x00000270       0x40 ..\obj\EE03.o
 .debug_aranges
                0x000002b0       0x38 ..\obj\Main.o
 .debug_aranges
                0x000002e8       0x30 ..\obj\config.o
 .debug_aranges
                0x00000318       0x28 ..\obj\startup_stm32f37x.o
 .debug_aranges
                0x00000340      0x2f0 ..\obj\stm32f37x_tim.o
 .debug_aranges
                0x00000630       0x70 ..\obj\utilities.o
 .debug_aranges
                0x000006a0       0x58 ..\obj\stm32f37x_wwdg.o
 .debug_aranges
                0x000006f8       0x38 ..\obj\thermistor.o
 .debug_aranges
                0x00000730       0x60 ..\obj\ADS1115.o
 .debug_aranges
                0x00000790       0x70 ..\obj\stm32f37x_pwr.o
 .debug_aranges
                0x00000800       0x38 ..\obj\pt100.o
 .debug_aranges
                0x00000838      0x1a0 ..\obj\stm32f37x_usart.o
 .debug_aranges
                0x000009d8       0x78 ..\obj\UBlox.o
 .debug_aranges
                0x00000a50       0x88 ..\obj\stm32f37x_crc.o
 .debug_aranges
                0x00000ad8       0x30 ..\obj\system_stm32f37x.o
 .debug_aranges
                0x00000b08       0x40 ..\obj\HYT271.o
 .debug_aranges
                0x00000b48      0x150 ..\obj\stm32f37x_rcc.o
 .debug_aranges
                0x00000c98       0xd0 ..\obj\peripherals.o
 .debug_aranges
                0x00000d68       0x80 ..\obj\stm32f37x_gpio.o
 .debug_aranges
                0x00000de8       0x40 ..\obj\MLX90614.o
 .debug_aranges
                0x00000e28       0x38 ..\obj\chemical.o
 .debug_aranges
                0x00000e60       0xa8 ..\obj\comms.o
 .debug_aranges
                0x00000f08      0x108 ..\obj\stm32f37x_flash.o

.debug_ranges   0x00000000      0xe68
 .debug_ranges  0x00000000       0x30 ..\obj\stm32f37x_misc.o
 .debug_ranges  0x00000030       0x50 ..\obj\MS5607.o
 .debug_ranges  0x00000080       0x58 ..\obj\HTU21D.o
 .debug_ranges  0x000000d8      0x158 ..\obj\stm32f37x_i2c.o
 .debug_ranges  0x00000230       0x30 ..\obj\EE03.o
 .debug_ranges  0x00000260       0x28 ..\obj\Main.o
 .debug_ranges  0x00000288       0x20 ..\obj\config.o
 .debug_ranges  0x000002a8       0x20 ..\obj\startup_stm32f37x.o
 .debug_ranges  0x000002c8      0x2e0 ..\obj\stm32f37x_tim.o
 .debug_ranges  0x000005a8       0x60 ..\obj\utilities.o
 .debug_ranges  0x00000608       0x48 ..\obj\stm32f37x_wwdg.o
 .debug_ranges  0x00000650       0x28 ..\obj\thermistor.o
 .debug_ranges  0x00000678       0x50 ..\obj\ADS1115.o
 .debug_ranges  0x000006c8       0x60 ..\obj\stm32f37x_pwr.o
 .debug_ranges  0x00000728       0x28 ..\obj\pt100.o
 .debug_ranges  0x00000750      0x190 ..\obj\stm32f37x_usart.o
 .debug_ranges  0x000008e0       0x68 ..\obj\UBlox.o
 .debug_ranges  0x00000948       0x78 ..\obj\stm32f37x_crc.o
 .debug_ranges  0x000009c0       0x20 ..\obj\system_stm32f37x.o
 .debug_ranges  0x000009e0       0x30 ..\obj\HYT271.o
 .debug_ranges  0x00000a10      0x140 ..\obj\stm32f37x_rcc.o
 .debug_ranges  0x00000b50       0xc0 ..\obj\peripherals.o
 .debug_ranges  0x00000c10       0x70 ..\obj\stm32f37x_gpio.o
 .debug_ranges  0x00000c80       0x30 ..\obj\MLX90614.o
 .debug_ranges  0x00000cb0       0x28 ..\obj\chemical.o
 .debug_ranges  0x00000cd8       0x98 ..\obj\comms.o
 .debug_ranges  0x00000d70       0xf8 ..\obj\stm32f37x_flash.o

.debug_line     0x00000000     0x6108
 .debug_line    0x00000000      0x216 ..\obj\stm32f37x_misc.o
 .debug_line    0x00000216      0x334 ..\obj\MS5607.o
 .debug_line    0x0000054a      0x325 ..\obj\HTU21D.o
 .debug_line    0x0000086f      0x52c ..\obj\stm32f37x_i2c.o
 .debug_line    0x00000d9b      0x2ad ..\obj\EE03.o
 .debug_line    0x00001048      0x2fa ..\obj\Main.o
 .debug_line    0x00001342      0x296 ..\obj\config.o
 .debug_line    0x000015d8       0xab ..\obj\startup_stm32f37x.o
 .debug_line    0x00001683      0x9e7 ..\obj\stm32f37x_tim.o
 .debug_line    0x0000206a      0x43b ..\obj\utilities.o
 .debug_line    0x000024a5      0x1ff ..\obj\stm32f37x_wwdg.o
 .debug_line    0x000026a4      0x299 ..\obj\thermistor.o
 .debug_line    0x0000293d      0x46f ..\obj\ADS1115.o
 .debug_line    0x00002dac      0x279 ..\obj\stm32f37x_pwr.o
 .debug_line    0x00003025      0x243 ..\obj\pt100.o
 .debug_line    0x00003268      0x5ce ..\obj\stm32f37x_usart.o
 .debug_line    0x00003836      0x420 ..\obj\UBlox.o
 .debug_line    0x00003c56      0x283 ..\obj\stm32f37x_crc.o
 .debug_line    0x00003ed9      0x1b4 ..\obj\system_stm32f37x.o
 .debug_line    0x0000408d      0x29f ..\obj\HYT271.o
 .debug_line    0x0000432c      0x517 ..\obj\stm32f37x_rcc.o
 .debug_line    0x00004843      0x4e7 ..\obj\peripherals.o
 .debug_line    0x00004d2a      0x2e2 ..\obj\stm32f37x_gpio.o
 .debug_line    0x0000500c      0x2d8 ..\obj\MLX90614.o
 .debug_line    0x000052e4      0x266 ..\obj\chemical.o
 .debug_line    0x0000554a      0x71c ..\obj\comms.o
 .debug_line    0x00005c66      0x4a2 ..\obj\stm32f37x_flash.o

.debug_str      0x00000000     0x458c
 .debug_str     0x00000000      0x343 ..\obj\stm32f37x_misc.o
                                0x37f (size before relaxing)
 .debug_str     0x00000343      0x7be ..\obj\MS5607.o
                                0x9ac (size before relaxing)
 .debug_str     0x00000b01      0x113 ..\obj\HTU21D.o
                                0x9aa (size before relaxing)
 .debug_str     0x00000c14      0x45c ..\obj\stm32f37x_i2c.o
                                0x5f3 (size before relaxing)
 .debug_str     0x00001070       0xa5 ..\obj\EE03.o
                                0x933 (size before relaxing)
 .debug_str     0x00001115      0x17f ..\obj\Main.o
                                0x9f8 (size before relaxing)
 .debug_str     0x00001294      0x173 ..\obj\config.o
                                0x9ec (size before relaxing)
 .debug_str     0x00001407      0xb92 ..\obj\stm32f37x_tim.o
                                0xd68 (size before relaxing)
 .debug_str     0x00001f99      0x15b ..\obj\utilities.o
                                0x9eb (size before relaxing)
 .debug_str     0x000020f4       0xdd ..\obj\stm32f37x_wwdg.o
                                0x21e (size before relaxing)
 .debug_str     0x000021d1       0xcd ..\obj\thermistor.o
                                0x9d7 (size before relaxing)
 .debug_str     0x0000229e       0xf3 ..\obj\ADS1115.o
                                0xa64 (size before relaxing)
 .debug_str     0x00002391      0x174 ..\obj\stm32f37x_pwr.o
                                0x321 (size before relaxing)
 .debug_str     0x00002505       0x6f ..\obj\pt100.o
                                0x909 (size before relaxing)
 .debug_str     0x00002574      0x7c4 ..\obj\stm32f37x_usart.o
                                0x96a (size before relaxing)
 .debug_str     0x00002d38      0x12a ..\obj\UBlox.o
                                0xa58 (size before relaxing)
 .debug_str     0x00002e62      0x1b3 ..\obj\stm32f37x_crc.o
                                0x304 (size before relaxing)
 .debug_str     0x00003015      0x131 ..\obj\system_stm32f37x.o
                                0x2ad (size before relaxing)
 .debug_str     0x00003146       0x8d ..\obj\HYT271.o
                                0x951 (size before relaxing)
 .debug_str     0x000031d3      0x45e ..\obj\stm32f37x_rcc.o
                                0x752 (size before relaxing)
 .debug_str     0x00003631      0x75f ..\obj\peripherals.o
                               0x12fb (size before relaxing)
 .debug_str     0x00003d90      0x18c ..\obj\stm32f37x_gpio.o
                                0x445 (size before relaxing)
 .debug_str     0x00003f1c       0xb4 ..\obj\MLX90614.o
                                0x946 (size before relaxing)
 .debug_str     0x00003fd0       0xb7 ..\obj\chemical.o
                                0x928 (size before relaxing)
 .debug_str     0x00004087      0x19d ..\obj\comms.o
                               0x1394 (size before relaxing)
 .debug_str     0x00004224      0x368 ..\obj\stm32f37x_flash.o
                                0x56e (size before relaxing)

.comment        0x00000000       0x70
 .comment       0x00000000       0x70 ..\obj\stm32f37x_misc.o
                                 0x71 (size before relaxing)
 .comment       0x00000000       0x71 ..\obj\MS5607.o
 .comment       0x00000000       0x71 ..\obj\HTU21D.o
 .comment       0x00000000       0x71 ..\obj\stm32f37x_i2c.o
 .comment       0x00000000       0x71 ..\obj\EE03.o
 .comment       0x00000000       0x71 ..\obj\Main.o
 .comment       0x00000000       0x71 ..\obj\config.o
 .comment       0x00000000       0x71 ..\obj\stm32f37x_tim.o
 .comment       0x00000000       0x71 ..\obj\utilities.o
 .comment       0x00000000       0x71 ..\obj\stm32f37x_wwdg.o
 .comment       0x00000000       0x71 ..\obj\thermistor.o
 .comment       0x00000000       0x71 ..\obj\ADS1115.o
 .comment       0x00000000       0x71 ..\obj\stm32f37x_pwr.o
 .comment       0x00000000       0x71 ..\obj\pt100.o
 .comment       0x00000000       0x71 ..\obj\stm32f37x_usart.o
 .comment       0x00000000       0x71 ..\obj\UBlox.o
 .comment       0x00000000       0x71 ..\obj\stm32f37x_crc.o
 .comment       0x00000000       0x71 ..\obj\system_stm32f37x.o
 .comment       0x00000000       0x71 ..\obj\HYT271.o
 .comment       0x00000000       0x71 ..\obj\stm32f37x_rcc.o
 .comment       0x00000000       0x71 ..\obj\peripherals.o
 .comment       0x00000000       0x71 ..\obj\stm32f37x_gpio.o
 .comment       0x00000000       0x71 ..\obj\MLX90614.o
 .comment       0x00000000       0x71 ..\obj\chemical.o
 .comment       0x00000000       0x71 ..\obj\comms.o
 .comment       0x00000000       0x71 ..\obj\stm32f37x_flash.o

.ARM.attributes
                0x00000000       0x39
 .ARM.attributes
                0x00000000       0x3b ..\obj\stm32f37x_misc.o
 .ARM.attributes
                0x0000003b       0x3b ..\obj\MS5607.o
 .ARM.attributes
                0x00000076       0x3b ..\obj\HTU21D.o
 .ARM.attributes
                0x000000b1       0x3b ..\obj\stm32f37x_i2c.o
 .ARM.attributes
                0x000000ec       0x3b ..\obj\EE03.o
 .ARM.attributes
                0x00000127       0x3b ..\obj\Main.o
 .ARM.attributes
                0x00000162       0x3b ..\obj\config.o
 .ARM.attributes
                0x0000019d       0x21 ..\obj\startup_stm32f37x.o
 .ARM.attributes
                0x000001be       0x3b ..\obj\stm32f37x_tim.o
 .ARM.attributes
                0x000001f9       0x3b ..\obj\utilities.o
 .ARM.attributes
                0x00000234       0x3b ..\obj\stm32f37x_wwdg.o
 .ARM.attributes
                0x0000026f       0x3b ..\obj\thermistor.o
 .ARM.attributes
                0x000002aa       0x3b ..\obj\ADS1115.o
 .ARM.attributes
                0x000002e5       0x3b ..\obj\stm32f37x_pwr.o
 .ARM.attributes
                0x00000320       0x3b ..\obj\pt100.o
 .ARM.attributes
                0x0000035b       0x3b ..\obj\stm32f37x_usart.o
 .ARM.attributes
                0x00000396       0x3b ..\obj\UBlox.o
 .ARM.attributes
                0x000003d1       0x3b ..\obj\stm32f37x_crc.o
 .ARM.attributes
                0x0000040c       0x3b ..\obj\system_stm32f37x.o
 .ARM.attributes
                0x00000447       0x3b ..\obj\HYT271.o
 .ARM.attributes
                0x00000482       0x3b ..\obj\stm32f37x_rcc.o
 .ARM.attributes
                0x000004bd       0x3b ..\obj\peripherals.o
 .ARM.attributes
                0x000004f8       0x3b ..\obj\stm32f37x_gpio.o
 .ARM.attributes
                0x00000533       0x3b ..\obj\MLX90614.o
 .ARM.attributes
                0x0000056e       0x3b ..\obj\chemical.o
 .ARM.attributes
                0x000005a9       0x3b ..\obj\comms.o
 .ARM.attributes
                0x000005e4       0x3b ..\obj\stm32f37x_flash.o
 .ARM.attributes
                0x0000061f       0x36 c:/coocox/gcc-arm-none-eabi-4_7-2013q3-20130916-win32/bin/../lib/gcc/arm-none-eabi/4.7.4/../../../../arm-none-eabi/lib/armv7e-m/fpu\libm.a(lib_a-s_round.o)
 .ARM.attributes
                0x00000655       0x36 c:/coocox/gcc-arm-none-eabi-4_7-2013q3-20130916-win32/bin/../lib/gcc/arm-none-eabi/4.7.4/../../../../arm-none-eabi/lib/armv7e-m/fpu\libm.a(lib_a-w_log10.o)
 .ARM.attributes
                0x0000068b       0x36 c:/coocox/gcc-arm-none-eabi-4_7-2013q3-20130916-win32/bin/../lib/gcc/arm-none-eabi/4.7.4/../../../../arm-none-eabi/lib/armv7e-m/fpu\libm.a(lib_a-w_pow.o)
 .ARM.attributes
                0x000006c1       0x36 c:/coocox/gcc-arm-none-eabi-4_7-2013q3-20130916-win32/bin/../lib/gcc/arm-none-eabi/4.7.4/../../../../arm-none-eabi/lib/armv7e-m/fpu\libm.a(lib_a-wf_log.o)
 .ARM.attributes
                0x000006f7       0x36 c:/coocox/gcc-arm-none-eabi-4_7-2013q3-20130916-win32/bin/../lib/gcc/arm-none-eabi/4.7.4/../../../../arm-none-eabi/lib/armv7e-m/fpu\libm.a(lib_a-wf_pow.o)
 .ARM.attributes
                0x0000072d       0x36 c:/coocox/gcc-arm-none-eabi-4_7-2013q3-20130916-win32/bin/../lib/gcc/arm-none-eabi/4.7.4/../../../../arm-none-eabi/lib/armv7e-m/fpu\libm.a(lib_a-e_log10.o)
 .ARM.attributes
                0x00000763       0x36 c:/coocox/gcc-arm-none-eabi-4_7-2013q3-20130916-win32/bin/../lib/gcc/arm-none-eabi/4.7.4/../../../../arm-none-eabi/lib/armv7e-m/fpu\libm.a(lib_a-e_pow.o)
 .ARM.attributes
                0x00000799       0x36 c:/coocox/gcc-arm-none-eabi-4_7-2013q3-20130916-win32/bin/../lib/gcc/arm-none-eabi/4.7.4/../../../../arm-none-eabi/lib/armv7e-m/fpu\libm.a(lib_a-e_sqrt.o)
 .ARM.attributes
                0x000007cf       0x36 c:/coocox/gcc-arm-none-eabi-4_7-2013q3-20130916-win32/bin/../lib/gcc/arm-none-eabi/4.7.4/../../../../arm-none-eabi/lib/armv7e-m/fpu\libm.a(lib_a-ef_log.o)
 .ARM.attributes
                0x00000805       0x36 c:/coocox/gcc-arm-none-eabi-4_7-2013q3-20130916-win32/bin/../lib/gcc/arm-none-eabi/4.7.4/../../../../arm-none-eabi/lib/armv7e-m/fpu\libm.a(lib_a-ef_pow.o)
 .ARM.attributes
                0x0000083b       0x36 c:/coocox/gcc-arm-none-eabi-4_7-2013q3-20130916-win32/bin/../lib/gcc/arm-none-eabi/4.7.4/../../../../arm-none-eabi/lib/armv7e-m/fpu\libm.a(lib_a-ef_sqrt.o)
 .ARM.attributes
                0x00000871       0x36 c:/coocox/gcc-arm-none-eabi-4_7-2013q3-20130916-win32/bin/../lib/gcc/arm-none-eabi/4.7.4/../../../../arm-none-eabi/lib/armv7e-m/fpu\libm.a(lib_a-s_fabs.o)
 .ARM.attributes
                0x000008a7       0x36 c:/coocox/gcc-arm-none-eabi-4_7-2013q3-20130916-win32/bin/../lib/gcc/arm-none-eabi/4.7.4/../../../../arm-none-eabi/lib/armv7e-m/fpu\libm.a(lib_a-s_finite.o)
 .ARM.attributes
                0x000008dd       0x36 c:/coocox/gcc-arm-none-eabi-4_7-2013q3-20130916-win32/bin/../lib/gcc/arm-none-eabi/4.7.4/../../../../arm-none-eabi/lib/armv7e-m/fpu\libm.a(lib_a-s_fpclassify.o)
 .ARM.attributes
                0x00000913       0x36 c:/coocox/gcc-arm-none-eabi-4_7-2013q3-20130916-win32/bin/../lib/gcc/arm-none-eabi/4.7.4/../../../../arm-none-eabi/lib/armv7e-m/fpu\libm.a(lib_a-s_lib_ver.o)
 .ARM.attributes
                0x00000949       0x36 c:/coocox/gcc-arm-none-eabi-4_7-2013q3-20130916-win32/bin/../lib/gcc/arm-none-eabi/4.7.4/../../../../arm-none-eabi/lib/armv7e-m/fpu\libm.a(lib_a-s_matherr.o)
 .ARM.attributes
                0x0000097f       0x36 c:/coocox/gcc-arm-none-eabi-4_7-2013q3-20130916-win32/bin/../lib/gcc/arm-none-eabi/4.7.4/../../../../arm-none-eabi/lib/armv7e-m/fpu\libm.a(lib_a-s_nan.o)
 .ARM.attributes
                0x000009b5       0x36 c:/coocox/gcc-arm-none-eabi-4_7-2013q3-20130916-win32/bin/../lib/gcc/arm-none-eabi/4.7.4/../../../../arm-none-eabi/lib/armv7e-m/fpu\libm.a(lib_a-s_rint.o)
 .ARM.attributes
                0x000009eb       0x36 c:/coocox/gcc-arm-none-eabi-4_7-2013q3-20130916-win32/bin/../lib/gcc/arm-none-eabi/4.7.4/../../../../arm-none-eabi/lib/armv7e-m/fpu\libm.a(lib_a-s_scalbn.o)
 .ARM.attributes
                0x00000a21       0x36 c:/coocox/gcc-arm-none-eabi-4_7-2013q3-20130916-win32/bin/../lib/gcc/arm-none-eabi/4.7.4/../../../../arm-none-eabi/lib/armv7e-m/fpu\libm.a(lib_a-sf_fabs.o)
 .ARM.attributes
                0x00000a57       0x36 c:/coocox/gcc-arm-none-eabi-4_7-2013q3-20130916-win32/bin/../lib/gcc/arm-none-eabi/4.7.4/../../../../arm-none-eabi/lib/armv7e-m/fpu\libm.a(lib_a-sf_finite.o)
 .ARM.attributes
                0x00000a8d       0x36 c:/coocox/gcc-arm-none-eabi-4_7-2013q3-20130916-win32/bin/../lib/gcc/arm-none-eabi/4.7.4/../../../../arm-none-eabi/lib/armv7e-m/fpu\libm.a(lib_a-sf_fpclassify.o)
 .ARM.attributes
                0x00000ac3       0x36 c:/coocox/gcc-arm-none-eabi-4_7-2013q3-20130916-win32/bin/../lib/gcc/arm-none-eabi/4.7.4/../../../../arm-none-eabi/lib/armv7e-m/fpu\libm.a(lib_a-sf_nan.o)
 .ARM.attributes
                0x00000af9       0x36 c:/coocox/gcc-arm-none-eabi-4_7-2013q3-20130916-win32/bin/../lib/gcc/arm-none-eabi/4.7.4/../../../../arm-none-eabi/lib/armv7e-m/fpu\libm.a(lib_a-sf_scalbn.o)
 .ARM.attributes
                0x00000b2f       0x36 c:/coocox/gcc-arm-none-eabi-4_7-2013q3-20130916-win32/bin/../lib/gcc/arm-none-eabi/4.7.4/../../../../arm-none-eabi/lib/armv7e-m/fpu\libm.a(lib_a-e_log.o)
 .ARM.attributes
                0x00000b65       0x36 c:/coocox/gcc-arm-none-eabi-4_7-2013q3-20130916-win32/bin/../lib/gcc/arm-none-eabi/4.7.4/../../../../arm-none-eabi/lib/armv7e-m/fpu\libm.a(lib_a-s_copysign.o)
 .ARM.attributes
                0x00000b9b       0x36 c:/coocox/gcc-arm-none-eabi-4_7-2013q3-20130916-win32/bin/../lib/gcc/arm-none-eabi/4.7.4/../../../../arm-none-eabi/lib/armv7e-m/fpu\libm.a(lib_a-sf_copysign.o)
 .ARM.attributes
                0x00000bd1       0x24 c:/coocox/gcc-arm-none-eabi-4_7-2013q3-20130916-win32/bin/../lib/gcc/arm-none-eabi/4.7.4/armv7e-m/fpu\libgcc.a(_arm_addsubdf3.o)
 .ARM.attributes
                0x00000bf5       0x24 c:/coocox/gcc-arm-none-eabi-4_7-2013q3-20130916-win32/bin/../lib/gcc/arm-none-eabi/4.7.4/armv7e-m/fpu\libgcc.a(_arm_muldivdf3.o)
 .ARM.attributes
                0x00000c19       0x24 c:/coocox/gcc-arm-none-eabi-4_7-2013q3-20130916-win32/bin/../lib/gcc/arm-none-eabi/4.7.4/armv7e-m/fpu\libgcc.a(_arm_cmpdf2.o)
 .ARM.attributes
                0x00000c3d       0x24 c:/coocox/gcc-arm-none-eabi-4_7-2013q3-20130916-win32/bin/../lib/gcc/arm-none-eabi/4.7.4/armv7e-m/fpu\libgcc.a(_arm_fixdfsi.o)
 .ARM.attributes
                0x00000c61       0x24 c:/coocox/gcc-arm-none-eabi-4_7-2013q3-20130916-win32/bin/../lib/gcc/arm-none-eabi/4.7.4/armv7e-m/fpu\libgcc.a(_arm_fixunsdfsi.o)
 .ARM.attributes
                0x00000c85       0x24 c:/coocox/gcc-arm-none-eabi-4_7-2013q3-20130916-win32/bin/../lib/gcc/arm-none-eabi/4.7.4/armv7e-m/fpu\libgcc.a(_arm_truncdfsf2.o)
 .ARM.attributes
                0x00000ca9       0x36 c:/coocox/gcc-arm-none-eabi-4_7-2013q3-20130916-win32/bin/../lib/gcc/arm-none-eabi/4.7.4/../../../../arm-none-eabi/lib/armv7e-m/fpu\libg.a(lib_a-errno.o)
 .ARM.attributes
                0x00000cdf       0x36 c:/coocox/gcc-arm-none-eabi-4_7-2013q3-20130916-win32/bin/../lib/gcc/arm-none-eabi/4.7.4/../../../../arm-none-eabi/lib/armv7e-m/fpu\libg.a(lib_a-impure.o)
 .ARM.attributes
                0x00000d15       0x36 c:/coocox/gcc-arm-none-eabi-4_7-2013q3-20130916-win32/bin/../lib/gcc/arm-none-eabi/4.7.4/../../../../arm-none-eabi/lib/armv7e-m/fpu\libg.a(lib_a-memcpy.o)
 .ARM.attributes
                0x00000d4b       0x36 c:/coocox/gcc-arm-none-eabi-4_7-2013q3-20130916-win32/bin/../lib/gcc/arm-none-eabi/4.7.4/../../../../arm-none-eabi/lib/armv7e-m/fpu\libg.a(lib_a-strcat.o)
 .ARM.attributes
                0x00000d81       0x36 c:/coocox/gcc-arm-none-eabi-4_7-2013q3-20130916-win32/bin/../lib/gcc/arm-none-eabi/4.7.4/../../../../arm-none-eabi/lib/armv7e-m/fpu\libg.a(lib_a-strchr.o)
 .ARM.attributes
                0x00000db7       0x36 c:/coocox/gcc-arm-none-eabi-4_7-2013q3-20130916-win32/bin/../lib/gcc/arm-none-eabi/4.7.4/../../../../arm-none-eabi/lib/armv7e-m/fpu\libg.a(lib_a-strcmp.o)
 .ARM.attributes
                0x00000ded       0x36 c:/coocox/gcc-arm-none-eabi-4_7-2013q3-20130916-win32/bin/../lib/gcc/arm-none-eabi/4.7.4/../../../../arm-none-eabi/lib/armv7e-m/fpu\libg.a(lib_a-strcpy.o)
 .ARM.attributes
                0x00000e23       0x36 c:/coocox/gcc-arm-none-eabi-4_7-2013q3-20130916-win32/bin/../lib/gcc/arm-none-eabi/4.7.4/../../../../arm-none-eabi/lib/armv7e-m/fpu\libg.a(lib_a-strlen.o)
 .ARM.attributes
                0x00000e59       0x36 c:/coocox/gcc-arm-none-eabi-4_7-2013q3-20130916-win32/bin/../lib/gcc/arm-none-eabi/4.7.4/../../../../arm-none-eabi/lib/armv7e-m/fpu\libg.a(lib_a-strtok.o)
 .ARM.attributes
                0x00000e8f       0x36 c:/coocox/gcc-arm-none-eabi-4_7-2013q3-20130916-win32/bin/../lib/gcc/arm-none-eabi/4.7.4/../../../../arm-none-eabi/lib/armv7e-m/fpu\libg.a(lib_a-strtok_r.o)
 .ARM.attributes
                0x00000ec5       0x36 c:/coocox/gcc-arm-none-eabi-4_7-2013q3-20130916-win32/bin/../lib/gcc/arm-none-eabi/4.7.4/../../../../arm-none-eabi/lib/armv7e-m/fpu\libg.a(lib_a-strupr.o)
 .ARM.attributes
                0x00000efb       0x36 c:/coocox/gcc-arm-none-eabi-4_7-2013q3-20130916-win32/bin/../lib/gcc/arm-none-eabi/4.7.4/../../../../arm-none-eabi/lib/armv7e-m/fpu\libg.a(lib_a-ctype_.o)

.debug_frame    0x00000000     0x386c
 .debug_frame   0x00000000       0x9c ..\obj\stm32f37x_misc.o
 .debug_frame   0x0000009c      0x13c ..\obj\MS5607.o
 .debug_frame   0x000001d8      0x154 ..\obj\HTU21D.o
 .debug_frame   0x0000032c      0x4ac ..\obj\stm32f37x_i2c.o
 .debug_frame   0x000007d8       0xb0 ..\obj\EE03.o
 .debug_frame   0x00000888       0x80 ..\obj\Main.o
 .debug_frame   0x00000908       0x6c ..\obj\config.o
 .debug_frame   0x00000974      0xa20 ..\obj\stm32f37x_tim.o
 .debug_frame   0x00001394      0x154 ..\obj\utilities.o
 .debug_frame   0x000014e8       0xe8 ..\obj\stm32f37x_wwdg.o
 .debug_frame   0x000015d0       0x98 ..\obj\thermistor.o
 .debug_frame   0x00001668      0x128 ..\obj\ADS1115.o
 .debug_frame   0x00001790      0x140 ..\obj\stm32f37x_pwr.o
 .debug_frame   0x000018d0       0x90 ..\obj\pt100.o
 .debug_frame   0x00001960      0x574 ..\obj\stm32f37x_usart.o
 .debug_frame   0x00001ed4      0x188 ..\obj\UBlox.o
 .debug_frame   0x0000205c      0x188 ..\obj\stm32f37x_crc.o
 .debug_frame   0x000021e4       0x64 ..\obj\system_stm32f37x.o
 .debug_frame   0x00002248       0xb0 ..\obj\HYT271.o
 .debug_frame   0x000022f8      0x44c ..\obj\stm32f37x_rcc.o
 .debug_frame   0x00002744      0x2b4 ..\obj\peripherals.o
 .debug_frame   0x000029f8      0x180 ..\obj\stm32f37x_gpio.o
 .debug_frame   0x00002b78       0xb0 ..\obj\MLX90614.o
 .debug_frame   0x00002c28       0x90 ..\obj\chemical.o
 .debug_frame   0x00002cb8      0x23c ..\obj\comms.o
 .debug_frame   0x00002ef4      0x378 ..\obj\stm32f37x_flash.o
 .debug_frame   0x0000326c       0x28 c:/coocox/gcc-arm-none-eabi-4_7-2013q3-20130916-win32/bin/../lib/gcc/arm-none-eabi/4.7.4/../../../../arm-none-eabi/lib/armv7e-m/fpu\libm.a(lib_a-s_round.o)
 .debug_frame   0x00003294       0x34 c:/coocox/gcc-arm-none-eabi-4_7-2013q3-20130916-win32/bin/../lib/gcc/arm-none-eabi/4.7.4/../../../../arm-none-eabi/lib/armv7e-m/fpu\libm.a(lib_a-w_log10.o)
 .debug_frame   0x000032c8       0x3c c:/coocox/gcc-arm-none-eabi-4_7-2013q3-20130916-win32/bin/../lib/gcc/arm-none-eabi/4.7.4/../../../../arm-none-eabi/lib/armv7e-m/fpu\libm.a(lib_a-w_pow.o)
 .debug_frame   0x00003304       0x30 c:/coocox/gcc-arm-none-eabi-4_7-2013q3-20130916-win32/bin/../lib/gcc/arm-none-eabi/4.7.4/../../../../arm-none-eabi/lib/armv7e-m/fpu\libm.a(lib_a-wf_log.o)
 .debug_frame   0x00003334       0x38 c:/coocox/gcc-arm-none-eabi-4_7-2013q3-20130916-win32/bin/../lib/gcc/arm-none-eabi/4.7.4/../../../../arm-none-eabi/lib/armv7e-m/fpu\libm.a(lib_a-wf_pow.o)
 .debug_frame   0x0000336c       0x34 c:/coocox/gcc-arm-none-eabi-4_7-2013q3-20130916-win32/bin/../lib/gcc/arm-none-eabi/4.7.4/../../../../arm-none-eabi/lib/armv7e-m/fpu\libm.a(lib_a-e_log10.o)
 .debug_frame   0x000033a0       0x38 c:/coocox/gcc-arm-none-eabi-4_7-2013q3-20130916-win32/bin/../lib/gcc/arm-none-eabi/4.7.4/../../../../arm-none-eabi/lib/armv7e-m/fpu\libm.a(lib_a-e_pow.o)
 .debug_frame   0x000033d8       0x3c c:/coocox/gcc-arm-none-eabi-4_7-2013q3-20130916-win32/bin/../lib/gcc/arm-none-eabi/4.7.4/../../../../arm-none-eabi/lib/armv7e-m/fpu\libm.a(lib_a-e_sqrt.o)
 .debug_frame   0x00003414       0x28 c:/coocox/gcc-arm-none-eabi-4_7-2013q3-20130916-win32/bin/../lib/gcc/arm-none-eabi/4.7.4/../../../../arm-none-eabi/lib/armv7e-m/fpu\libm.a(lib_a-ef_log.o)
 .debug_frame   0x0000343c       0x3c c:/coocox/gcc-arm-none-eabi-4_7-2013q3-20130916-win32/bin/../lib/gcc/arm-none-eabi/4.7.4/../../../../arm-none-eabi/lib/armv7e-m/fpu\libm.a(lib_a-ef_pow.o)
 .debug_frame   0x00003478       0x2c c:/coocox/gcc-arm-none-eabi-4_7-2013q3-20130916-win32/bin/../lib/gcc/arm-none-eabi/4.7.4/../../../../arm-none-eabi/lib/armv7e-m/fpu\libm.a(lib_a-ef_sqrt.o)
 .debug_frame   0x000034a4       0x20 c:/coocox/gcc-arm-none-eabi-4_7-2013q3-20130916-win32/bin/../lib/gcc/arm-none-eabi/4.7.4/../../../../arm-none-eabi/lib/armv7e-m/fpu\libm.a(lib_a-s_fabs.o)
 .debug_frame   0x000034c4       0x20 c:/coocox/gcc-arm-none-eabi-4_7-2013q3-20130916-win32/bin/../lib/gcc/arm-none-eabi/4.7.4/../../../../arm-none-eabi/lib/armv7e-m/fpu\libm.a(lib_a-s_finite.o)
 .debug_frame   0x000034e4       0x20 c:/coocox/gcc-arm-none-eabi-4_7-2013q3-20130916-win32/bin/../lib/gcc/arm-none-eabi/4.7.4/../../../../arm-none-eabi/lib/armv7e-m/fpu\libm.a(lib_a-s_fpclassify.o)
 .debug_frame   0x00003504       0x20 c:/coocox/gcc-arm-none-eabi-4_7-2013q3-20130916-win32/bin/../lib/gcc/arm-none-eabi/4.7.4/../../../../arm-none-eabi/lib/armv7e-m/fpu\libm.a(lib_a-s_matherr.o)
 .debug_frame   0x00003524       0x20 c:/coocox/gcc-arm-none-eabi-4_7-2013q3-20130916-win32/bin/../lib/gcc/arm-none-eabi/4.7.4/../../../../arm-none-eabi/lib/armv7e-m/fpu\libm.a(lib_a-s_nan.o)
 .debug_frame   0x00003544       0x30 c:/coocox/gcc-arm-none-eabi-4_7-2013q3-20130916-win32/bin/../lib/gcc/arm-none-eabi/4.7.4/../../../../arm-none-eabi/lib/armv7e-m/fpu\libm.a(lib_a-s_rint.o)
 .debug_frame   0x00003574       0x2c c:/coocox/gcc-arm-none-eabi-4_7-2013q3-20130916-win32/bin/../lib/gcc/arm-none-eabi/4.7.4/../../../../arm-none-eabi/lib/armv7e-m/fpu\libm.a(lib_a-s_scalbn.o)
 .debug_frame   0x000035a0       0x20 c:/coocox/gcc-arm-none-eabi-4_7-2013q3-20130916-win32/bin/../lib/gcc/arm-none-eabi/4.7.4/../../../../arm-none-eabi/lib/armv7e-m/fpu\libm.a(lib_a-sf_fabs.o)
 .debug_frame   0x000035c0       0x20 c:/coocox/gcc-arm-none-eabi-4_7-2013q3-20130916-win32/bin/../lib/gcc/arm-none-eabi/4.7.4/../../../../arm-none-eabi/lib/armv7e-m/fpu\libm.a(lib_a-sf_finite.o)
 .debug_frame   0x000035e0       0x20 c:/coocox/gcc-arm-none-eabi-4_7-2013q3-20130916-win32/bin/../lib/gcc/arm-none-eabi/4.7.4/../../../../arm-none-eabi/lib/armv7e-m/fpu\libm.a(lib_a-sf_fpclassify.o)
 .debug_frame   0x00003600       0x20 c:/coocox/gcc-arm-none-eabi-4_7-2013q3-20130916-win32/bin/../lib/gcc/arm-none-eabi/4.7.4/../../../../arm-none-eabi/lib/armv7e-m/fpu\libm.a(lib_a-sf_nan.o)
 .debug_frame   0x00003620       0x30 c:/coocox/gcc-arm-none-eabi-4_7-2013q3-20130916-win32/bin/../lib/gcc/arm-none-eabi/4.7.4/../../../../arm-none-eabi/lib/armv7e-m/fpu\libm.a(lib_a-sf_scalbn.o)
 .debug_frame   0x00003650       0x38 c:/coocox/gcc-arm-none-eabi-4_7-2013q3-20130916-win32/bin/../lib/gcc/arm-none-eabi/4.7.4/../../../../arm-none-eabi/lib/armv7e-m/fpu\libm.a(lib_a-e_log.o)
 .debug_frame   0x00003688       0x28 c:/coocox/gcc-arm-none-eabi-4_7-2013q3-20130916-win32/bin/../lib/gcc/arm-none-eabi/4.7.4/../../../../arm-none-eabi/lib/armv7e-m/fpu\libm.a(lib_a-s_copysign.o)
 .debug_frame   0x000036b0       0x20 c:/coocox/gcc-arm-none-eabi-4_7-2013q3-20130916-win32/bin/../lib/gcc/arm-none-eabi/4.7.4/../../../../arm-none-eabi/lib/armv7e-m/fpu\libm.a(lib_a-sf_copysign.o)
 .debug_frame   0x000036d0       0x20 c:/coocox/gcc-arm-none-eabi-4_7-2013q3-20130916-win32/bin/../lib/gcc/arm-none-eabi/4.7.4/../../../../arm-none-eabi/lib/armv7e-m/fpu\libg.a(lib_a-errno.o)
 .debug_frame   0x000036f0       0x30 c:/coocox/gcc-arm-none-eabi-4_7-2013q3-20130916-win32/bin/../lib/gcc/arm-none-eabi/4.7.4/../../../../arm-none-eabi/lib/armv7e-m/fpu\libg.a(lib_a-memcpy.o)
 .debug_frame   0x00003720       0x2c c:/coocox/gcc-arm-none-eabi-4_7-2013q3-20130916-win32/bin/../lib/gcc/arm-none-eabi/4.7.4/../../../../arm-none-eabi/lib/armv7e-m/fpu\libg.a(lib_a-strcat.o)
 .debug_frame   0x0000374c       0x2c c:/coocox/gcc-arm-none-eabi-4_7-2013q3-20130916-win32/bin/../lib/gcc/arm-none-eabi/4.7.4/../../../../arm-none-eabi/lib/armv7e-m/fpu\libg.a(lib_a-strchr.o)
 .debug_frame   0x00003778       0x30 c:/coocox/gcc-arm-none-eabi-4_7-2013q3-20130916-win32/bin/../lib/gcc/arm-none-eabi/4.7.4/../../../../arm-none-eabi/lib/armv7e-m/fpu\libg.a(lib_a-strcmp.o)
 .debug_frame   0x000037a8       0x20 c:/coocox/gcc-arm-none-eabi-4_7-2013q3-20130916-win32/bin/../lib/gcc/arm-none-eabi/4.7.4/../../../../arm-none-eabi/lib/armv7e-m/fpu\libg.a(lib_a-strcpy.o)
 .debug_frame   0x000037c8       0x20 c:/coocox/gcc-arm-none-eabi-4_7-2013q3-20130916-win32/bin/../lib/gcc/arm-none-eabi/4.7.4/../../../../arm-none-eabi/lib/armv7e-m/fpu\libg.a(lib_a-strlen.o)
 .debug_frame   0x000037e8       0x20 c:/coocox/gcc-arm-none-eabi-4_7-2013q3-20130916-win32/bin/../lib/gcc/arm-none-eabi/4.7.4/../../../../arm-none-eabi/lib/armv7e-m/fpu\libg.a(lib_a-strtok.o)
 .debug_frame   0x00003808       0x3c c:/coocox/gcc-arm-none-eabi-4_7-2013q3-20130916-win32/bin/../lib/gcc/arm-none-eabi/4.7.4/../../../../arm-none-eabi/lib/armv7e-m/fpu\libg.a(lib_a-strtok_r.o)
 .debug_frame   0x00003844       0x28 c:/coocox/gcc-arm-none-eabi-4_7-2013q3-20130916-win32/bin/../lib/gcc/arm-none-eabi/4.7.4/../../../../arm-none-eabi/lib/armv7e-m/fpu\libg.a(lib_a-strupr.o)
